:4000000080673030303030307e3030307e3030307e3030307e3030307e3030307d13d17e7d0ab77e7e3030307d057a7e7d057b7e7e3030307d0abd7e7d07d97e7d0aba7e6b
:400040007e3030307e3030307e3030307e3030307e3030307e3030307e3030307e3030307e3030307e303030711062fa0062e38770ef50202850402850602862e33841fe08
:40008000fb50804e62e33855f80055f900711062e00270ef62e338627105627505627905627d0562d10750004e62d30762d00062d50062d40071c07c050f62d000500457a5
:4000c000080828533518750900284b5135800475090062e300082860d574a04b1875090008285335187509000828a01c53341875090008283f354735ffb0065dd57460d509
:40010000187a34bfeb8fc9187509000828533450003f354735ffb0085dd57460d550007a34bfef188faa18711043e32070ef62e000711062e00343e78070ef62e2007c0dbf
:400140002c8fff50107f3030303030303030303030303030303030303030303030303030303030303030303030303030303030303030303030303030303030303030303006
:4001800030303030303030303030303030303030303030303030303030303030303030303c0a0d00496e76616c696420436f6d6d616e643a203e0020636f756e74733c0da9
:4001c0000a00537465657220706f74206973206174203e0053686166742052657365740d0a00524553554d4500452d53544f50004553544f500070696e670053746565723b
:400200002050726f6772616d2053746172740d0a005374656572696e672050536f430075fe76217720740080908100826183f084908500866087f02300210022003f003df7
:40024000003e0033003100320037003500360071fe7221732070003b0039003a002f002d002e002b0029002a006028660063176500e638e708d600b031b100b200b333b4bf
:4002800033b500b620b855b900ba10bb33bc33bd00be80c000c100c220c333c433c500c600c855c900ca30cb33cc33cd00ce006c006d006e006f00ff2021214522403c21aa
:4002c0003d553e40300131153240342135353640380d39013a472c052de12e40280d29012a4761006900600062006733683363006600d100d300d000d200e1b1e200df9b95
:40030000de00dd00e700ff002020202020202020203030303030202020202020202020202020202020202020904040404040404040404040404040400c0c0c0c0c0c0c0c1c
:400340000c0c4040404040404009090909090901010101010101010101010101010101010101014040404040400a0a0a0a0a0a02020202020202020202020202020202027d
:400380000202024040404020000000000000000000000000000000000000000000000000000000000000000000000000000000000000000000000000000000000000000017
:4003c00000000000000000000000000000000000000000000000000000000000000000000000000000000000000000000000000000000000000000000000000000000000fd
:400400000000000000000000161570ef62000071106200006201ff70ef6203ff620200711062020062030070ef620100620404711062048062057f70ef62070b6206c07135
:400440001062060062073070ef62053062080071106208ff62090070ef620b00620a807110620a00620b0070ef620900620c007110620c00620d0070ef620f00620e00715d
:4004800010620e00620f0070ef620d00621000711062100062110070ef621300621200711062120062130070ef621100621400711062140062150070ef621700621600717c
:4004c0001062160062170070ef621500621800711062180062190070ef621b00621a007110621a00621b0070ef621900621c007110621c00621d0070ef621f00621e0071bc
:4005000010621e00621f0070ef621d0070ef7f5502005503ff5504007c051f7c040a7f1070ef5000675002571f7c053a500167500257b87c053a70ef207f380210084f56cc
:40054000fc00d00456fc01182070ef62e30010082839ffa01f4f48fc01a003711054fd18207509001008284f59fd610018207509008fd738fc703f71c07f7e08105dd308c3
:4005800058015d2f082108b00418805e1821e0a0122c00492e002120a050412ffe432f0180485d2e470001b041390db0142e000162d300703f7180560d00703f7100802a34
:4005c0003920c02662d3003c011fc011703f7180560d00703f71002e0010800e703f7180540d703f7100755a011860d320187e43e10443e1087f41e1fb41e1f77f7110214f
:4006000001a00743281070ef7f4128ef70ef7f2901602b602f912a7f412bfe412ffe7f60297f5d2b7f5d2e7f5d2f7f210171103901a0064128ef800443281070ef7f0821a9
:4006400001a00643e108800441e1f7182102a00643e104800441e1fb7f303132333435363738394142434445460867676767210fffe7900f18210fffe090087f4b9fea5b79
:400680009fe77f492b10affc60297f492f08affc5d2e7f5d2f082108b00418800b5d2e4b1821a0b0034b7f50007f5d2f21e8082108b0071829014b80071821e04b5d2e7fbb
:4006c00070bf60d35200a0069fb9758ff8703f71c07f70bf62d3074f52fba01a7bfb52fc59fd60d35200492b10affc60294f62d30777fd8fe4703f71c07f4f3dfa00b006c8
:400700003dfb00a01d1052fc59fd28492b10affc60292007fd010ffc0017fb011ffa008fdb703f71c07f081028a00b9f56201875dff5748ff238fe7f500d9f47500a9f4381
:400740007f62d000550d0062d00055010026000062d0005547007f62d000510021017f62d000510021f026000f7f62d00051017f70bf62d000500d02475c62d3005200b062
:40078000041080333920b01175764752003c471fbff310560000801f107576473c471faff35200a0123920bff156000076473c471fb00455471f20103d0000b00a20570026
:4007c0005b703f71c07f205000703f71c07f62d000500d02475c50007f7e43e1407f41e1bf7f71102101a00743381070ef7f4138ef70ef7f2901603b7f413bfe7f60397f5e
:400800005d3b7f303132333435363738394142434445460867676767210fffe7900f18210fffe090087f4b9fea5b9fe77f493b10affc60397f70bf60d35200a0069fee7581
:400840008ff8703f71c07f70bf62d3074f52fba01a7bfb52fc59fd60d35200493b10affc60394f62d30777fd8fe4703f71c07f4f3dfa00b0063dfb00a01d1052fc59fd287c
:40088000493b10affc60392007fd010ffc0017fb011ffa008fdb7f081028a00b9f8f201875dff5748ff238fe7f500d9f80500a9f7c7f21034f085d7321fc2b006073187079
:4008c0003f71c07f21fc4f085d712107480004b00e4170fe2b00607118703f71c07f2700182b00607143700118703f71c07f4173fc7f081028b00420187f9044201875dfd3
:40090000f2748fef303132333435363738394142434445460867676767210fffe7902118210fffe0901a7f4b9fea5b9fe77f70bf60d35200a0069008758ff8703f71c07ff5
:4009400090650867676767210f903b18210f40404090337f90510867676767210f900918210f40404090017f0862d0002602805102600818210f29102a02600853024021cb
:400980008f530260087f0862d0002602802e02205102600818210f29302a02600853024021af530260087f0862d000260280510260082603f051037110600870ef2e0240e7
:4009c00051026008401057ff2e02505102600840405d08082602c0510260084040402e02505102600840402602c051026008182108a00479bfd3202e037f510371106008b0
:400a000070ef187f62d0002603802e037f2604805103711060085104600970ef50fa906750fa906350039f405052905b50039f3890639061905f50039f2e505a9049500202
:400a40009f26505a904150089f0a505a903950019f02505a903150069efa500e9ef6502c9ef250089eee500c9eea50039ee6505a90157f80c094d4210310fff74f03ff20c9
:400a80009ed2703f71c07f900c78bffc7f08193a7c010101010871105de070ef21073905d006ffe978bffe187ffffefcf8f0e0c00204081020408076057e76067e4123fe55
:400ac000413ffe43822043862043831043871071014070fe085d205d227873d00376055308510553075d3c5d3e7873d0037606530a510653096221ff623dff432301433f0b
:400b0000015505005506004183ef4187ef4182df4186df510b210fff97082207a00b18110153075508ff80021868076e0868076e08510b210fff79082209a00b18110153ac
:400b400009550aff80021868096e0a68096e0a182e0b10470cffa0237a0cb01f4133fe4123fe413ffe43822043862043831043871041e1df41e1fe41e17f7e62d000210371
:400b80004f085d8321fc2b0029f060835d8721fc2b0029f06087498201a0055003530b18703f71c07f4183fc4187fc7f62d000530c510b210f0107908c5d36530550001264
:400bc00005675505005506005d326221ff623dff4183ef4187ef4182df4186df432305433f0543330143e12043e10143e1807f4133fe4123fe413ffe438220438620438398
:400c0000104387100841e1df41e1fe41e1fe187f62d000510b21107f62d000260bef580751087f62d000580751087f62d000260bef5809510a7f62d0005809510a7f62d08e
:400c400000260bef7f62d0004182fe9fa2550b003907d00550078007390dc003500d11072c0b01015c50016479bffd6232006036623101010060357f21034f085d7721fc12
:400c80002b00607718703f71c07f21fc4f085d752107480004b00e4174fe2b00607518703f71c07f2700182b00607543740118703f71c07f4177fc7f104f380252fc13fa84
:400cc00052f9318062d000532f52fb31801a2fd00b52fc540152fb5400800952fa540152f9540062d000520153345200533538fe207f104f380252fa13fc52fb318062d036
:400d000000532f52f931801a2fd00b52fc540152fb5400800952fa540152f9540062d000520153345200533538fe207f104f3804560100560000710143e020107c07415028
:400d4000017c063e50007c060f50007c07f47c07da50037c0c7850037c08b250037c0b7b7c0a04500057007c0a7750020850115c187c08f250010850fb5c187c0726208048
:400d8000d862d0005544005d04213062d000534662d00050010850f4085200085201087c141738fe185334183900b0183c3400b013107c073850010850f65c187c07267cbc
:400dc00007382077010f00005d0462d0005335473504b0401050010850f05c187c07267c073820935510500057007c0a7750010850e95c187c08f2205d0462d00053354747
:400e00003504aff51050010850e25c187c07267c073820933a93bd107c07572062d0003900a036107c077062d00053355a342051345403513554023c3500b0063c3400a080
:400e40001362d00052035334520260d43e3408900e38ff107c0741208f2838fc208fff104f38095600aa56020056010052fc54085607003d0700b0063d0845a14c3d0700e2
:400e8000b0063d0848a0f93d0700b0063d0849a15a3d0700b0063d084aa16e3d0700b0063d084ca1423d0700b0063d0850a1663d0700b0063d0851a11f3d0700b0063d08a8
:400ec00052a1363d0700b0063d0853a0e93d0700b0063d0854a07352081145520731801980c15a3d0700b0063d0865a0dc3d0700b0063d0868a0893d0700b0063d0869a062
:400f0000ea3d0700b0063d086aa0fe3d0700b0063d086ca0d23d0700b0063d0870a0f63d0700b0063d0871a0af3d0700b0063d0872a0c63d0700b0063d0873a0793d0700f9
:400f4000b0063d0874a00380f4107c077062d00053355a342051345404513554033c3500b0063c3400a0f35203085204087c145b62d000513508513408934338fc80db1034
:400f80007c077062d00053355a342051345404513554033c3500b0063c3400a0bd5203085204087c145b62d000513508513408935038fc80a51062d0005136085137207c04
:400fc000067c7c0738208092500108505008508008909838fd8083500008505008508008908938fd8074915280701050537c068350aa7c082d208062934a1050010850d48d
:401000005c187c072620805250000850640892f138fe80461050010850c25c187c072620925b1062d0005135085134207c067c50010850b75c187c072620801e1050010852
:4010400050a45c187c0726201052fc7c068350010850a05c187c072620107c07412062d00055340055350038f7207f104f380a3dfc82b00956030156020080075603005652
:40108000020052fa62d0006464646464646453355203013853325202090060d43e323a35a009560101560000800756010056000062d00052fb533455350052012a34533496
:4010c00052002a353900b0063c3400a06a52fc540452fa540552fb540662d00052fc03fa533552fb04355135217f5407105004085a340634045007085134087c084738fdb4
:40110000203dfc82b009560901560800800756090056080052fa62d00064646464646464533552fb2c355209013853325208090060d551353f3238f6207f50000808508004
:40114000089f28500008085082089f1f38fa7f104f380290e762d000513454015135540062d0005143130162d000533462d00051421b0062d0005335513408513562d0008f
:40118000533a18533b513b11ec513a3180197fd0105001085078085082089ecf38fd803162d0005014123b513a318062d000532f50801a2fd0105000085078085082089efd
:4011c000aa38fd800c500008085082089e9d38fd38fe207f104f380262d000514162d0001237540162d000514062d0001a365400520111ec52003180197fd01050010850cb
:4012000050085080089e6438fd802e501413015200318062d000532f50801a2fd0105000085050085080089e4238fd800c500008085080089e3538fd38fe207f62d0003c75
:401240004400b0291050027c0bac20107c0c102062d0003900aff5107c0c2b62d0005a352008513562d000533c18533d62d000513d08513c62d00053351853347f62d000cb
:401280003c4400b0291050027c0bac20107c0c102062d0003900aff5107c0c1862d0005a352008513562d000533e18533f62d000513f08513e62d00053351853347f104f2d
:4012c00052fb0852fc0850f7085004089a2462d000513454fc513554fb52fb0852fc0850080850fc0899d138f862d000513454fc513554fb62d00052fc534152fb53402015
:401300007f104f52fb0852fc0850000850640899e162d000513454fc513554fb52fb0852fc08500308508408998e38f862d000513454fc513554fb62d00052fc534352fb42
:401340005342207f104f38035602009f3062d00051345401513554005201110452001902d006560201800e5004130150021b00d0045602005202085050085080089cec3863
:40138000fd800e9ef862d000513454015135540062d00052011104533452001902085134087c15de38fe62d000501e123451353180532f50801a2fcfcb50000808508008d4
:4013c0009ca938fd62d00055370055360038fd207f71c0085dd0085d04213062d000534562d0003c4600b01362d0003c4510b00b62d00076370e3600801962d0003c460007
:40140000b01162d0003c4520b00962d0007a371e36001860d0187e104f7c142220703f71c07f5dd00862d0005000532e532f552d1066fc6cfb6b2e6b2f512e1bfa512f1b43
:40144000f9c009532f52fa1c2e77fc7a2dbfe3512e54fa512f54f91860d07f104f3804800677fc0ffb0062d00052fc533452fb60d43e3453345000085134087c15bd38feed
:4014800062d0003c3500bfda3c3400bfd556030056020062d00052fc533452fb60d43e34392db00e56030156020077fc0ffb00801762d00052fc533452fb60d43e34392bf9
:4014c000b00677fc0ffb00560100560000807b62d00052fc533452fb53355134010154fc5135090054fb520153325200533355300a553100552f00552e003c3100b0063c55
:401500003000a01a70fb6e316e30d00c62d0005132042f51330c2e65326b338fde5f322f5f332e62d000513560d43e34533455350051320234533451330a355335513411e5
:4015400030540151351900540062d00052fc533452fb60d43e3453345000085134087c159c38fe62d0003c3500bf653c3400bf603d0200b0063d0300a01462d000520173f3
:4015800011ff533452007319ff5335800c62d000520153345200533538fc207f104f62d00052fc0108533452fb090310583428205334553500263404263500207f104f6214
:4015c000d00052fc0108533452fb090310583428205334553500263410263500207f104f380252fc110052fb31801980c00b52fc540152fb5400800f52fc7311ff540152e6
:40160000fb7319ff540062d000520153345200533538fe207f00360011ff0030303030303030303030303030303030303030303030303030303030303030303030303030df
:40164000303030303030303030303030303030303030303030303030303030303030303030303030303030303030303030303030303030303030303030303030303030306a
:40168000303030303030303030303030303030303030303030303030303030303030303030303030303030303030303030303030303030303030303030303030303030302a
:4016c00030303030303030303030303030303030303030303030303030303030303030303030303030303030303030303030303030303030303030303030303030303030ea
:4017000030303030303030303030303030303030303030303030303030303030303030303030303030303030303030303030303030303030303030303030303030303030a9
:020000040010ea
:020000040020da
:02000000a265f7
:00000001ff
