:400000000080002011000000D9000000D900000008B5044B1A6803F53F5302331A6000F05DF800BFFA46004010B5054C237833B9044B13B10448AFF300800123237010BD70
:400040002881FF1F000000001C070000084B10B51BB108480849AFF300800848036803B910BD074B002BFBD0BDE81040184700BF000000001C0700002C81FF1F0881FF1FBB
:400080000000000038B5022001214FF4804241F6FF7300F0FFF9054600F0C0FA0446022102460B4600F0D4FA204645F6A031064B1A8800F0E1FA2846214600F07FFA2846E4
:4000C000012100F033FA38BD4481FF1F08B5FFF7D9FF62B6FEE700BFFEE700BF08B5104E104D16E029686B68AC68002204E051F8040B43F8040B0432A242F8D1E86800221B
:4001000003E0002143F8041B04328242F9D11035013E002EE6D100F0C7FAFFF7D7FFFEE7010000007007000008B5134A134B1A60134A136843F40073136000230AE0032B38
:4001400003D8104A52F8231000E00F490F4A42F8231001332F2BF2D90D4B1A780D4B1A700A4A0D4B1A6000F0F3F800F0C5F900220A4B1A6008BD00BF0004FA050CED00E0AA
:4001800014ED00E000000000D90000000080FF1FBC7600400481FF1F08ED00E00081FF1FFEE700BFF0B40022174611E050F82760F3B226F0FF0608E001EB420511F81240A1
:4001C0006D78A5550132013BDBB2002BF4D10137222FEBD9F0BC704708B50A46002100F094FA08BD38B51D22294B1A801823294A137033210232118002321370BF210232C4
:400200001180023213700622234B1A705222A3F580731A70214B1B78DBB2214A13704FF4E262204B1A8041F25122023B1A80002419250CE01C4B1B7803F0010343EA440496
:4002400004F003044FF4F07000F046F9013D0DB1032CEFD115B90320FFF7A2FF134B4FF480721A8007221A700121114A117008210232117000221A7005331A700222083BAD
:400280001A700C4A137843F00703137038BD00BF8040004082400040004300400F010049A146004022420040254200400440004006400040A2430040F8B51B4B1B78DBB2AD
:4002C0001A4E3478E4B21A4F3D78EDB203F00701184A11701B090132137044F00303337045F003033B701322134B1A70602203F2F4731A70022203F27F131A7020230F4AC6
:4003000013700A207432107010211C3211700332137004220A4B1A7000F0BCF93D7034704422084B1A70F8BDCF010049F8460040F94600406E5800400D510040905A00405B
:400340005B5B00407658004008B500F0D3F908BD38B572B6384A137843F00403137000240CE0364963001A1952000A4423445B00C8589188FFF730FF0134E4B2062CF0D9B1
:400380004FF090402E49FFF70DFF2E480421FFF723FF2D480421FFF71FFF2C480421FFF71BFF2B480421FFF717FF2A4A137843F0020313701032137843F002031370264C53
:4003C000237843F040032370A2F58632513A137843F010031370214821490822FFF7B4FF204821490A22FFF7AFFF204820490A22FFF7AAFF1F4820490822FFF7A5FF1F484C
:400400001F490822FFF7A0FFC4221E4B1A701E4A137843F0080313701C4D61232B70FFF7E1FE81232B70FFF747FF194821460E22FFF78AFF38BD00BFE84600402007000070
:400440008C0000480076004008760040107600401876004003500140A04300400251004078080048C051004080080048F05100408C080048125100409808004832510040C2
:40048000A00800485B0201402243004000480040B0430040F0B583B084468E4617461E460B4C0225257000230093019328466146724600F08FF820783946324600F064F89B
:4004C0002078294600F04EF8207803B0F0BD00BF0C81FF1F000000000230800803D000BF01380046FCD17047EFF3108072B6704780F31088704700BF0B4A7F231370802121
:40050000517007E0DA0002F1804202F5F042013BDBB21370002BF5D1DB0003F1804303F5F04300221A7070471081FF1F172815D831B103010A495A5C42F020025A5405E04D
:40054000030107495A5C02F0DF025A540001044A835C43F00103835400207047012070471070004017280BD80001064A835C03F0F10301F0070143EA4101815400207047F8
:40058000012070471070004041F6FF73994201D14FF4005141F6FF739A4201D14FF40052172808D8C00000F1804000F5EC408180C280002070470120704700BF172805D84F
:4005C000034B03EB0010417200207047012070471070004017281BD810B4C00000F1804404F5EC44D201D2B201F07F01114321709DF804201201D2B203F00F0313436370CE
:400600009DF8083003F00F03A3700020E07001E0012070475DF8044B704700BF10B5FFF763FF0A4B5B78182B0BD9084A1478013B5370E30003F1804303F5F0431B7813706E
:4006400000E0FF24FFF754FF204610BD1081FF1F10F0800F0CD111F4704F0BD1C00000F1804000F5F04001808270C37000207047012070470120704710F0800F08D1C00055
:4006800000F1804000F5F0408180C280002070470120704708B5034B1B7A03FB00F0FFF71BFF08BD1881FF1F0E4B70B51E460E4C0025E41AA410A54204D056F82530984708
:4006C0000135F8E700F042F8084B094C1E46E41AA4100025A54204D056F8253098470135F8E770BD5807000058070000580700006007000010B5431E0A44914204D011F8B1
:40070000014B03F8014FF8E710BD03460244934202D003F8011BFAE7704700000000000020510040100040510040300000000140001000140140000800400140000A004C4A
:40074000014000020050014020000000F8B500BFF8BC08BC9E4670474D00000029010000F8B500BFF8BC08BC9E46704729000000800700000881FF1F200000002800000071
:4007800000000000FF0000007F8000000F0000000000E02EC05D00001800000000366E01000000000000000000000000000000000000000000000000000000000000000044
:4007C00000000000000000000000000000000000000000000000000000000000000000000000000000000000000000000000000000000000000000000000000000000000F9
:4008000000000000000000000000000000000000000000000000000000000000000000000000000000000000000000000000000000000000000000000000000000000000B8
:400840000000000000000000000000000000000000000000000000000000000000000000000000000000000000000000000000000000000000000000000000000000000078
:400880000000000000000000000000000000000000000000000000000000000000000000000000000000000000000000000000000000000000000000000000000000000038
:020000040003F7
:0200000480007A
:400000000145004005520040015A0040015B004002640040036500404C000140350101404A0201404603014066040140470501406B0601403F070140010B0140010D0140F6
:400040005114014041150140541601404517014002190140011B01400C4001400B41014008420140024301400145014006460140054701400D48014009490140034C0140BD
:40008000024D014007500140025101407E02001101010C0460017C4097012784810F826F840F850F876F01100320051007A008FD09010A020B020C300EC90F0410CF123084
:4000C00014941660170719211B121D101F6020732107249E250726602A0F2B082D043140330F34FF353037803A023B203E10580459045C985F118004811C85018702890127
:400100008B028D308F049102933D952C9602971099209B049C04A740A901AA01AB02AD30AF08B004B103B201B33CB402B540BB02D40FD804D904DB04DC99DD90DF010180DA
:400140000206030404020A200BC00E100F021040110A1288160819201B011E041F0A2010210122782424250426022710284029A02A042C022F28325836223704382439022F
:400180003B803C083D223E083F405C015EA878208001828483048702C013C2ACC44ECA7FCCEECEFFD6F0DE040007032105140620070A082009060B180D0A0F14121013205B
:4001C0001440151E160F18301E80204C211822022306244B2604284C2A012C082D0E2E4130103220332034C0351E360F37013E05540F580459045B045C995D905F05807FB9
:400200008601870F88FE89948A018B608C968DCF8E688F3090A3925C940E96F09D73A1FDA302A4C5A59EA63AA760AD30AFC9B1FFB6FFBE40BF01D804D904DF0100040140D0
:400240000282034404100504074008020A200B900C020D200E010F1011081210154117141A011C041E601F402201240225082705290A2B022C012D012F403240370538A8E9
:400280003D483F125D105E4A660867047E8080208908901092249402961097809B109C209F04A104A20AA301A404A510A6D0A720A802A904C07FC2FCC4F4CA9BCCC8CEFE38
:4002C000D6F0D860DE80E624031004A106520711090C0A070C540EA010F7150A19101D061E082077243126C22CC02D0C2E3430F03310340F3501370E39803F044034410671
:4003000049FF4AFF4BFF4DA04F0150185280580459045A045B045C995D995F016040628064406540668068406A806C406D206E808104840386048702920897019B019C03B4
:40034000A501AB04AC01B001B102B202B304B408B604B701B80ABE01BF44C034C106C52CC630C74EC83BC9FFCAFFCBFFCDAFCE07CF01D018D804D904DA04DC99DD09DF010A
:40038000E040E280E440E540E680E840EA80EC40ED20EE8001280302048006210A420C020F0210401108120114011580180819221A401C021D261E201F2021482290264451
:4003C000274028022E202F2032903304361838063A103C023E04410A450A4A084C804E084F06540256287001851087019004920694A895109690970498029A109B049C016D
:400400009D0E9E08A208A406A530A6C5A702AF20C027C299C48DCA68CC6ECEC7D0C3D224E002000102020A100C020E011401160218011A021D011E082304240827032A04D3
:400440002F0130033204330134103504360837023A023E403F044021410649FF4AFF4BFF4DA04F0150185280580459045A045B045C995D995F016040628064406540668052
:4004800068406A806C406D206E80805D81038220846685038610870C8E78903B910896809D01A066A208A440A608B007B104B278B308B4C0B502B701B802B9A0BF44C0215A
:4004C000C106C54EC6C0C723C83BC9FFCAFFCBFFCDAFCE07CF01D018D804D904DA04DC99DD09DF01E040E280E440E540E680E840EA80EC40ED20EE800040010B0440074434
:400500000A800B200C800E14110A1404170819081A801B311C481D011E121F02218022052304268027382C802E802F203040324136803802390841804310458047204924CE
:400540004B024D2050015104521276808021924494A0969099229B409C409D08A080A404A514A601A702C0DDC2ECC46CCAD0CC19CE03D03CD224E002E60400800413062CA6
:4005800009200B430E480F0C10131264144A158C1634171319D11B061F082240263528032A142DD12F0E306831303280330F340F35C0361039223A223B083E443F10400638
:4005C000460449FF4A074BFF4C404D204EF04F0550085401580459045A045B045C115D115F01604061A8624063208602870188018901930A940195029A019B01A704B10494
:40060000B201B308B402B501B702BE04BF50D40FD804D904DB04DC99DD90DF01008001020280032005200710080209080F1410A819541B211E2420C8210824082608274101
:4006400028022B012C082E14308031183520360A38603F14480450B0511059465A105C885D015E2080848F109101931495209604980899209C029D109F41A008A282A4C0E0
:40068000A508A720B004B308C06DC26CC40ECA48CCEECE6CD204D6FFE440E830EC80009601180268030404C50540063A073E080E0AF00CA30D160E5C0F0810FE1110120179
:4006C000130215181601170219201B401C7F1D201F40210E252027402B01311E336034FF35013B083E10580459045C905F0183038410860C882089028A038C098E10900C9A
:400700009211941C96029F04A010A414B21FB301B504B620B702BE40BF40C062C101C5EBC70CC813C9FFCAFFCBFFCEF0CF44D00CD40FD804D904DA04DB04DC91DD91DF0597
:40074000E6C0EA40EB020090032004A00509080209080C400E400F2210A018101A021F102260231024A0251527042C402E042F0833403509362037403B123D0A3E404002C9
:400780004110482049104A80500858205A885B01610462107B0184088601870191019248930694A097209820992D9A109C049F04A202A311A515C0F7C2BCC40CCAE0CCF881
:4007C000CED5D00CD204D60FD806DE08EA02EE02EA02EE02E8103280330136403C014310600162808402CC70CE80D010E21006025402668082808A809F11A002A6C0C080F2
:40080000D6A0E62051025B1085029F11A640AE02E040EC109F11A64081081908302084209D08C608CC080B400D084402C20CD004002005202408271084049F10AE40AF0155
:40084000C0C0C8A0E640EA40EE40042074048C10A004B010B120B404C080DE209C02AD08AF40B402E808010109010B01100211011A021B01002B10A008000000001113004C
:4008800001000001010001000000000040000C0000000000C0000000146060000000000008000000000000000000000000000000000000000000000000000000000000004C
:4008C00000000000000000000000000000000000000000000000000000000000000000000000000000000000000000000000000000000000000000000000000000000000F8
:4009000000000000000000000000000000000000000000000000000000000000000000000000000000000000000000000000000000000000000000000000000000000000B7
:400940000000000000000000000000000000000000000000000000000000000000000000000000000000000000000000000000000000000000000000000000000000000077
:400980000000000000000000000000000000000000000000000000000000000000000000000000000000000000000000000000000000000000000000000000000000000037
:0200000490006A
:0400000000004005B7
:0200000490105A
:04000000BC90ACAF55
:0200000490303A
:0200000017F2F5
:0200000490402A
:4000000000000000000000000000000000000000000000000000000000000000000000000000000000000000000000000000000000000000000000000000000000000000C0
:400040000000000000000000000000000000000000000000000000000000000000000000000000000000000000000000000000000000000000000000000000000000000080
:400080000000000000000000000000000000000000000000000000000000000000000000000000000000000000000000000000000000000000000000000000000000000040
:4000C0000000000000000000000000000000000000000000000000000000000000000000000000000000000000000000000000000000000000000000000000000000000000
:0200000490501A
:0C00000000012E16106900012E1B285B69
:00000001FF