:400000000080002011000000C5010000C501000008B5044B1A6803F53F5302331A6000F0D3F800BFFA46004010B5054C237833B9044B13B10448AFF300800123237010BD20
:400040003081FF1F0000000040210000084B10B51BB108480849AFF300800848036803B910BD074B002BFBD0BDE81040184700BF00000000402100003481FF1F0881FF1F2F
:400080000000000038B5022001214FF4804241F6FF7301F0DFFE054601F062FD044664210246222301F076FD204645F6A2311E4A92B201F083FD2846214601F021FD284655
:4000C000012101F0C3FC022001214FF4804241F6FF7301F0ADFF054601F042FD044664210246222301F056FD204645F6A0310F4A92B201F063FD2846214601F001FD2846F2
:40010000012101F0A3FC0020012100F05DFB00F093FB0028FBD001F085FE01F091FE01F06FFF01F07BFF38BD5881FF1F6883FF1F38B562B6FFF7A6FF022000F0BBFC0024D2
:400140002546632C00D1002400F07CFB28B100F073FB10B1022000F0ADFC022000F082FB012826D1022000F087FB02460220124900F048FC022000F075FB0128FAD00220A3
:4001800000F098FC012000F06DFB0128FAD13F2D00D90025094951F82430094A5355681CC3F3072313540235EDB20120224600F0ABFB0134E4B2C4E7E882FF1F6883FF1F33
:4001C0002883FF1FFEE700BF08B5104E104D16E029686B68AC68002204E051F8040B43F8040B0432A242F8D1E868002203E0002143F8041B04328242F9D11035013E002EDB
:40020000E6D101F063FFFFF793FFFEE701000000D022000008B5134A134B1A60134A136843F40073136000230AE0032B03D8104A52F8231000E00F490F4A42F8231001334E
:400240002F2BF2D90D4B1A780D4B1A700A4A0D4B1A6000F009F901F0DFFB00220A4B1A6008BD00BF0004FA050CED00E014ED00E000000000C50100000080FF1FBC760040A2
:400280000481FF1F08ED00E00081FF1FFEE700BFF0B40022174611E050F82760F3B226F0FF0608E001EB420511F812406D78A5550132013BDBB2002BF4D10137232FEBD951
:4002C000F0BC704708B50A46002101F030FF08BD38B531222B4B1A8018232B490B7002310A802A4A13705521023211800232137040F23D1102321180023213700622244BD5
:400300001A705222A3F580731A70224B1B78DBB2214A137040F63572204B1A8042F25122023B1A80002419250CE01D4B1B7803F0010343EA440404F003044FF4F07001F08B
:400340005BFB013D0DB1032CEFD115B90320FFF79DFF144B4FF480721A8007221A70022211490A700820023108700021197005331970083B1A700D4A137843F00F0313702B
:4003800038BD00BF804000408240004086400040004300400F010049A146004022420040254200400440004006400040A2430040F8B5224B1B78DBB2214E3478E4B2214FA9
:4003C0003D78EDB203F007011F4A11701B090132137044F00303337045F003033B7012221A4B1A7020231A4A1370602219490A7008310A70022201F277110A7008310A70FD
:4004000008310B700A20743108704FF0100E1C3181F800E003310B7005310B7003310B700D4B1A70042203331A7001F0D7FB3D7034704422094B1A70F8BD00BFCF01004902
:40044000F8460040F94600406E5800400D5100403D51004001590040585B00407658004008B501F059FE08BD38B572B63C4A137843F00403137000240CE03A4963001A199C
:4004800052000A4423445B00C8589188FFF71AFF0134E4B2062CF0D94FF090403249FFF7F7FE32480421FFF70DFF31480421FFF709FF30480421FFF705FF2F480421FFF7F1
:4004C00001FF2E480421FFF7FDFE2D4A137843F0020313701032137843F002031370294C237843F040032370A2F58632513A137843F010031370244824490822FFF7B0FF3C
:40050000234824490A22FFF7ABFF234823490A22FFF7A6FF224823490A22FFF7A1FF224822490822FFF79CFF8422214B1A70442203F5C0731A701F4A137843F008031370E5
:400540001D4D61232B70FFF7C3FE81232B70FFF72FFF1A4821460E22FFF782FF38BD00BFE8460040442100009000004800760040087600401076004018760040207600402B
:4005800003500140A043004002510040E8080048C0510040F0080048F0510040FC08004820510040080900483251004014090048DB0201402243004000480040B0430040AB
:4005C000F8B501F021FA0546404A137843F0010313701032137843F00103137001273C4B1F700226943B1E7002F5E2521B32137803F07F031370002001F0F0FA354C2378CC
:4006000003F0F9032370344A137803F0DF03137023783B432370384601F0E0FA282001F0DDFA2E4B1A7802F07F021A701A7802F0BF021A70237833432370304601F0CEFA28
:40064000237843F0040323700023254A13700132137004E0FF21234AD15401339BB2082BF8D9284601F0D4F91720072101F0D4FA17201D4901F0BCFA1820072101F0CCFA87
:4006800018201A4901F0B4FA0220072101F0C4FA0220174901F0ACFA0320072101F0BCFA0320144901F0A4FA1620002101F0B4FA1620114901F09CFA0C20072101F0ACFAF5
:4006C0000C200E4901F094FAF8BD00BFA54300409D6000409443004012600040F8510040846000400485FF1F750F0000D50D0000010F0000390F00007D0F00002110000087
:4007000008B5234B18700023224A1370224A1370224A1370224A1370224A1370224A1370224A1370224B4FF400021A604FF080721A6004221A6008221A6003201D4A107035
:400740004FF480021A6020221B4B1A7011B1012906D00BE0194A137803F0FE0313700AE0164A137843F00103137004E0134A137843F0010313700322114B1A708022203BD9
:400780001A70012001F038F904220E4B1A7008BD2485FF1F2A85FF1F2885FF1F2985FF1F2585FF1F1085FF1F2785FF1FA085FF1F00E100E09E6000409C6000400960004007
:4007C000286000401260004038B505460C46064B1B7823B9FFF7F4FE0122034B1A7028462146FFF78DFF38BD4C81FF1F00230A4A13700A4A13700A4A13700A4A13700A4A48
:4008000013700A4A13700A4A13700322094B1A708022203B1A7070472A85FF1F2885FF1F2985FF1F2585FF1F1085FF1F2785FF1FA085FF1F28600040014B1878704700BF40
:400840002985FF1F064B1B7813F0FF0F05D0044B1878C0B200221A7070470020704700BF2885FF1F00EB40008000024B18444078704700BF3485FF1F431EDBB2072B0BD871
:40088000064B00011A18185C00F00F00537843EA0020023880B2704700207047FC5F004010B5044600EB40008000144B1844037913F0800F03D00A0C4FF4804302E00B0C29
:4008C0004FF48042012C02D0022C07D00CE00020014601F069F80A4B185505E00020014601F044F8064B1855631EDBB2072B03D801F036F9034B185510BD00BF3485FF1FF8
:40090000F884FF1F0485FF1F2DE9F0410446431EDBB2072B68D80E46154600EB40039B00324A1344DB889BB2C3F500739D4207D900EB40039B001344DD88C5F50075ADB28D
:4009400004EB44039B00294A1344DB7843EA15232749220188188B54EBB24370254B1B5DFF2B03D120463146FFF79AFF04EB44039B001E4A134400225A705EB355B31E4F6E
:40098000385D01F07FF8DFF86C8018F804002946FE22112301F0FEF822010832174D2A4492B218F80400B1B201F008F9385D18F8041001F0A5F8385D012101F047F824018A
:4009C0002B5D43F002032B552B5D03F0FD032B55BDE8F08104EB44039B00044A13445A79D2B22401064B1A55BDE8F0813485FF1FFC5F00400485FF1FF884FF1F706000401B
:400A0000FE5F00402DE9F843002944D0044615460F46002841D0082841D8FFF72DFFA84203D22046FFF728FF05461F4B1B5DFF2B03D120463946FFF733FFDFF8748018F898
:400A4000040001F01FF8DFF8609019F804002946FE22122301F09EF821010831134E314489B219F80400BAB201F0A8F818F8040019F8041001F044F818F80400012100F039
:400A8000E5FF2401335D43F002033355335D03F0FD03335504E0002502E0002500E000252846BDE8F88300BF0485FF1F70600040F884FF1F431EDBB2072B0BD84300034492
:400AC0009B00054A134400225A705A79D2B20001024B1A54704700BF3485FF1FFE5F00401C4B19781C4A13880B449BB2138000230EE01A4A51680978C9B21948C15451684B
:400B0000013151600133DBB21188013989B21180124A128892B20AB1072BEAD90D4A1278D2B2082A00D05BB10E490A7882F080020A700F210C4A117002210C4A117004E0E9
:400B4000022209490A7009490A70094A1370014A13707047A085FF1FA685FF1F1885FF1F006000402685FF1F1185FF1F2A85FF1FA185FF1F0222074B1A708022064B1A706C
:400B80000F22064B1A700023054A1370054A1370012070472A85FF1F2685FF1F1185FF1FA085FF1FA185FF1F08B5FFF799FF08BD10B4184B197801F00F010239C9B2164ADA
:400BC00013880B449BB21380002010E0134B5C68134A125CD2B222705A6801325A600130C0B20139C9B21A88013A92B21A800B4B1B889BB20BB10029E8D10A4B19700A4A40
:400C0000137883F0800313700B22084B1A705DF8044B704729600040A685FF1F1885FF1F00600040A185FF1F2685FF1F1185FF1F0623064A1370064A13708022054B1A70D2
:400C40000022054B1A700120704700BF2A85FF1F1185FF1F2685FF1FA185FF1F064B9B6843B1054B9A6810709A6804490988518000229A60704700BF1885FF1FA685FF1FF2
:400C800008B5134B1A78D2B21A701B78DBB213F0800F02D00F4A137008BD0220FFF7DEFF0D4B1B7803F06003202B05D0402B06D043B900F08FFC06E001F0ECF903E000F0B7
:400CC00037FE00E0002010B90322024B1A7008BD286000401185FF1F0060004008B5084B1978084A13880B449BB213800022064B1A700120FFF7B2FF0322044B1A7008BDD4
:400D0000A085FF1FA685FF1F2A85FF1F1185FF1F08B50B4B1B78DBB2042B06D0062B07D0022B0BD1FFF7DAFF08BDFFF741FF08BD0320FFF793FF0322024B1A7008BD00BFA3
:400D40002A85FF1F1185FF1F08B50022044B1A700120FFF783FF0322024B1A7008BD00BF2A85FF1F1185FF1F08B50B4B1B7813F0FF0F07D0084A137843F0800307490B70B4
:400D8000002313700022064B1A700120FFF766FF0322044B1A7008BD1085FF1F086000402A85FF1F1185FF1F08B5094B1B78DBB2042B06D0062B07D0022B07D1FFF7F4FE4A
:400DC00008BDFFF7C1FF08BDFFF7CEFF08BD00BF2A85FF1F08B5284B1B78DBB213F0100F48D013F0800F0CD003F00F03012B16D1FFF746FF214B1B7813F0800F11D10123BD
:400E000012E013F0400F03D0FFF7CEFF01230BE013F0200F07D0FFF77BFF012304E0002302E0002300E0002323B3134B1B7813F0800F1FD1124B1B78124A12781343124A4C
:400E400013701278D2B29A4214D10C4B1B78DBB2094A127812F0800F07D1084B1B78DBB2054A1370137803F00F03044A1278D2B29342EAD108BD00BF286000401185FF1FA2
:400E80002685FF1FA185FF1F296000400022064B1A80064B9B682BB1044A916800230B7092685380704700BFA685FF1F1885FF1F08B50F4B1B889BB213B9FFF75BFE15E0DC
:400EC00002220C4B1A7000220B4B1A70FFF7DEFF0A4AD179937943EA0123054A128892B29A4201D9024A1380FFF7FAFD012008BD1885FF1F2A85FF1F2685FF1F0060004097
:400F00000A4A137803F0FE031370094B9B7C094B1B7B03F00303012B04D0064AD37B83F08003D3730122034B5A7370470B600040FC5F00403485FF1F0B4A137803F0FD034E
:400F400013700A4B93F82230094B1B7E03F00303012B04D0064AD37E83F08003D3760122034B5A76704700BF0B600040FC5F00403485FF1F08B5FFF739FC08BD70B4234BE3
:400F80001C78E4B201233CE014F0010F36D01A4619011F48084481784078014011F0010F17D003EB430080001A4D2844007910F0800F0ED0164D1E01A85D00F0FE00A855BA
:400FC00003EB43008000134D28444579EDB21248855511F0020F0ED002EB420080000D4D2844007910F0800F05D102EB420080002844002545701201084881540133DBB2B2
:401000006408002CC0D170BC704700BF9F600040706000403485FF1FFE5F00407260004008B500F0DFFC08BD70B588B0054603AC174E0FCE0FC43368237035B322232B7061
:4010400003236B7001A800F0FFFD002402231AE008AA224412F81C2C08A901EB121111F8141CE954581C00212954981C02F00F0208AE324412F8142C2A54DA1CA954013412
:40108000E4B20433DBB2212BE2D908B070BD00BF7021000030B4012240E0114623481301C4180C25C5541F23637002EB42039B001F4803445B7913F0FF0F12D002EB4203EE
:4010C0009B0003441B7913F0800F04D01001194B03449D700AE01001164B03440820987004E01001134B0344802098704B000B449B000F480344DC88E4B208010B490144C7
:401100008C71D888C0F30720C871D888C0B20871DB88C3F307234B710132D2B2082ABCD9FF22054B1A7030BC704700BF706000403485FF1FFC5F00400A600040074B1B7809
:40114000074A02EBC30253681A7C824203D903EBC003586970470020704700BF2485FF1FC0210000F8B5404B1B7813F0FF0F79D03D4B18780138C0B2FFF7E0FF047AC268AF
:401180003A4B1878C0B200236AE01178814264D13749095CC9B25578A9425ED1917801F07F01D67806F00306DFF8C8E04D000D44AD000EEB05074FF0000C87F803C092F8C6
:4011C00002C087F804C092F803C00EF805C095883D8192F90250002D0DDA012E01D1072700E00D274D000D44AD00224E35446F7101266E700CE0012E01D1052700E0092781
:401200004D000D44AD001B4E35446F7100266E70DFF868E00F010EEB07060125B57001FA05F529448900134D29440D89C5F307250EF807500D89EDB27570CE88F6B20E4D1B
:401240003D44AE71CE88C6F30726EE71CE88F6B22E71C988C1F30721697108320133DBB2A34292D3F8BD00BF2985FF1F2585FF1F1485FF1F3485FF1F70600040FC5F004009
:40128000034B1A78034B03EBC2035868704700BF2485FF1FC021000008B5074B18780138C0B2FFF74BFF28B14268127900EBC203586908BD002008BD2985FF1FF8B5002221
:4012C0000EE0674E53009D18AD00741900217155A170E1702181A172617061710132D2B2082AEED940B90AE000225E49CA545E49CA540133DBB200E00023002BF4D05B4BD0
:401300001B7813F0FF0F00F0A980584B18780138C0B2FFF713FF4368DB7913F0400F05D0534A137843F00103137004E0504A137803F0FE031370057A012461E0C168002351
:401340005AE08A7802F07F02944252D1264604EB44029200424F3A44128992B28F88BA4206D204EB44029200DFF8F4E0724417810A783C4FBA5CD2B24F78BA4239D191F8FC
:4013800002C0374F72003244920007EB020E8EF804C091F803E007F802E0CA7802F0030291F90270002F11DA012A02D14FF0070C01E04FF00D0CDFF8A8E072009719BF00BA
:4013C000774487F805C001227A7012E0012A02D14FF0050C01E04FF0090C214F4FEA460E0EEB060292003A4482F805C016460022727008310133DBB2AB42A2D30134E4B298
:40140000082C9BD9C06800220CE0837803F07F0310F8084B03EB43039B0016490B449C700132D2B2AA42F0D3FFF736FF124B1860002301210EE00A4C4A00501880002044F5
:40144000C380028913449BB203F0010213449BB20131C9B20829EED9FFF71CFEF8BD00BF3485FF1F1485FF1FA485FF1F2985FF1F2785FF1F3C85FF1F3085FF1F08B5154BFD
:401480001A7902F07F02531EDBB2072B20D8530013449B0010490B44997841F0010199700021D970597841F0020159701B7913F0800F05D01201094B13448D229A7004E036
:4014C0001201064B134489229A70FFF7B1FB08BD002008BD006000403485FF1FFC5F0040264B1B7903F07F035A1ED2B2072A43D810B55A001A44920021490A44917801F09B
:40150000FE0191700021D17019017F241D484454517801F0FD015170127912F0800F14D003EB4302920016490A445278D2B2012A05D11B0102461A440C23937019E01B014C
:40154000104A1A440D23937013E003EB430292000B490A445278D2B2012A05D11B01094A1A440823937004E01B01064A1A4409239370FFF75DFB10BD00207047006000406D
:401580003485FF1FFC5F004010B50E4B1C79E4B20D4B18780138C0B2FFF7D0FD43681B799C4201D9012C0AD8084A135DDBB208490B55044B9B78DBB21355012010BD0020AF
:4015C00010BD00BF006000402985FF1F1485FF1FA485FF1F10B5964B1B78DBB20021954A118013F0800F00F0B380914A5278D2B20A2A00F27981DFE812F06F007701770178
:401600007701770177010B00770198007701A000874BDB78DBB2012B09D1FFF731FE4268844B5A6012221A80FFF742FC10BD804BDB78DBB2022B13D17D4B9878FFF77EFD2B
:40164000002800F0538142687A4B5A605A68D1785A68927842EA01221A80FFF729FC10BD734BDB78DBB2032B05D032E00A7811440133DBB201E000236F496D4A9278D2B261
:401680009A4203D90A7812F0FF0FEFD1684B9B78DBB2EE2B00D16949654B9B7813F0FF0F0BD0634B9B78DBB2654A127C934204D1644C2046FFF7B8FC21460B7813F0FF0F92
:4016C00000F016810B785B4A13805160FFF7F0FB10BD00F0DFFC10BD13F0030317D0022B40F0088153490B80514B1B7903F07F0303EB43039B00544A13449A78D2B2534B17
:401700001A7000225A704B60FFF7D2FB10BD494902230B804E4B1A78D2B24C4B1A7000225A704B60FFF7C4FB10BD424B01221A80484A5A60FFF7BCFB10BD3E4A012313807E
:401740003B4B1B7944490B445360FFF7B1FB10BD374A5278013A0A2A00F2CE80DFE812F04B00CC009700CC000B00CC00CC00CC001300CC0030002E4B9B78DBB2374A137079
:40178000FFF756FA10BD2A4B9B7803F0FF041BB1601EC0B2FFF7D2FC04B110B9002C40F0AD802C4B1B78DBB29C4206D0294B1C7001202B4B1870FFF781FDFFF739FA10BD3D
:4017C000FFF7E2FE002800F09B80194A1379DBB21279D2B223490A70234AD25C1E49C95CD3B28B4204D001221D4B1A70FFF7BAFCFFF71EFA10BD03F00303012B36D04BB15F
:40180000022B7FD10A4B9B7813F0FF0F7CD1FFF767FE10BD064B9B78DBB2012B76D10C4A137803F0FD031370FFF702FA10BD00BF006000401885FF1F18220000AC210000A2
:4018400098220000C085FF1F3485FF1F5081FF1F2785FF1F2985FF1F1485FF1F1085FF1F2885FF1F2585FF1FA485FF1F2D4B1B7913F0FF0F4CD12B4B98781B79DBB22A4957
:40188000CA5C22EA0002CA54FFF7D2F910BD03F00303012B17D04BB1022B3BD1214B9B7813F0FF0F38D1FFF7E9FD10BD1D4B9B78DBB2012B32D11D4A137843F002031370E1
:4018C000FFF7B6F910BD174B1B7913F0FF0F27D1144B98781B79DBB21349CA5C22EA0002CA54FFF7A5F910BD002010BD002010BD002010BD002010BD002010BD002010BD4A
:40190000002010BD002010BD002010BD002010BD002010BD002010BD002010BD002010BD002010BD006000402C85FF1F2785FF1F08B50B4B1B7813F0800F0CD0084B5B78DF
:40194000DBB2012B09D1074B074A5A6012781A80FFF7AEFA08BD002008BD002008BD00BF006000401885FF1F84210000F0B583B086460F4616461D460A4C01202070002385
:401980000093019371463A4600F0C6F8207831462A4600F09BF82078022100F085F8207803B0F0BD0C81FF1FF0B583B086460F4616461D460A4C0023237000930193184605
:4019C00071463A4600F0A8F8207831462A4600F07DF82078022100F067F8207803B0F0BD0D81FF1F024B1878C0F38010704700BF8F450040000000000230800803D000BF98
:401A000001380046FCD17047EFF3108072B6704780F31088704700BF0B4A7F2313708021517007E0DA0002F1804202F5F042013BDBB21370002BF5D1DB0003F1804303F58F
:401A4000F04300221A7070471081FF1F172815D831B103010A495A5C42F020025A5405E0030107495A5C02F0DF025A540001044A835C43F0010383540020704701207047A9
:401A80001070004017280BD80001064BC25C02F0FE02C254C25C02F0DF02C25400207047012070471070004017280BD80001064A835C03F0F10301F0070143EA41018154E0
:401AC00000207047012070471070004041F6FF73994201D14FF4005141F6FF739A4201D14FF40052172808D8C00000F1804000F5EC408180C280002070470120704700BF3F
:401B0000172805D8034B03EB0010417200207047012070471070004017281BD810B4C00000F1804404F5EC44D201D2B201F07F01114321709DF804201201D2B203F00F0385
:401B4000134363709DF8083003F00F03A3700020E07001E0012070475DF8044B704700BF10B5FFF751FF0A4B5B78182B0BD9084A1478013B5370E30003F1804303F5F04318
:401B80001B78137000E0FF24FFF742FF204610BD1081FF1F10F0800F0CD111F4704F0BD1C00000F1804000F5F04001808270C37000207047012070470120704710F0800F95
:401BC00008D1C00000F1804000F5F0408180C280002070470120704701BE704708B5034B1B7A03FB00F0FFF707FF08BD1881FF1F70B504460E46074B1D681F2802D900202C
:401C0000FFF7EAFF04F01F04103455F8240045F8246070BD08ED00E038B504460D46072902D90020FFF7D8FF1F2C02D90020FFF7D3FF04F01F0000F1604000F564406D01FB
:401C4000EDB2057038BD00BF134B1B78DBB20360124A127843EA02230360114A127843EA024303600F4A127843EA026303600E4B1B78DBB243600D4A127843EA022343609C
:401C80000B4A127843EA024343600A4A127843EA02634360704700BF0301004904010049EC460040020100490101004900010049050100490601004908B50A280FD00C2818
:401CC00002D0082806D102E04FF4805209E04FF4807206E00020FFF77FFF002201E04FF480620021094B198042F2107303FB02F303F6C413064A82FB0302DB17C3EBE22355
:401D0000044A1360044B198008BD00BFAE85FF1FAD8BDB68A885FF1FAC85FF1F38B5FFF773FE04461E4A137843F0020313701032137843F002031370193A137843F0010327
:401D400013701032137843F00103137002F5AA521932137843F0030313701822114B1A70013B1A7842F040021A701A7802F0FC021A70C822053B1A700225A3F59753123B32
:401D80001D70094A137843F0080313700A20FFF725FF064B1D602046FFF73AFE38BD00BFAB4300400E5900402F5B004080E200E010B504460A280DD00C2802D0082804D193
:401DC00001E0C22207E0422205E00020FFF704FFC22200E08222034B1A702046FFF76CFF10BD00BF0A59004008B5102000F03EF901200721FFF710FF01200749FFF7F8FEE0
:401E0000064A137843F0060313700C20FFF7D0FF0022034B1A8008BD511E000009590040B085FF1F08B5054B1B7823B9FFF7DCFF0122024B1A70FFF771FF08BD5481FF1F7F
:401E4000024A137843F001031370704708590040704700BFF0B583B084468E4617461E460B4C02252570002300930193284661467246FFF751FE207839463246FFF726FEB4
:401E800020782946FFF710FE207803B0F0BD00BF2881FF1F08B50A280FD00C2802D0082806D102E04FF4805209E04FF4807206E00020FFF791FE002201E04FF480620021D5
:401EC000094B198042F2107303FB02F303F6C413064A82FB0302DB17C3EBE223044A1360044B198008BD00BFBA85FF1FAD8BDB68B485FF1FB885FF1F10B5FFF785FD0446C6
:401F00001E4A137843F0010313701032137843F001031370193A137843F0020313701032137843F00203137002F5AA521132137843F0030313701822114B1A70013B1A78E1
:401F400042F040021A701A7802F0FC021A70C822053B1A700222A3F597530C3B1A70094A137843F0080313700A20FFF737FE0122054B1A602046FFF74BFD10BDAB430040AC
:401F800006590040275B004080E200E010B504460A280DD00C2802D0082804D101E0C22207E0422205E00020FFF716FEC22200E08222034B1A702046FFF76CFF10BD00BFA3
:401FC0000259004008B5102000F05AF800200721FFF722FE00200749FFF70AFE064A137843F0060313700C20FFF7D0FF0022034B1A8008BD2D20000001590040BC85FF1FAB
:4020000008B5054B1B7823B9FFF7DCFF0122024B1A70FFF771FF08BD5581FF1F024A137843F001031370704700590040704700BFF0B583B086460F4616461D460A4C0320B2
:40204000207000230093019371463A46FFF764FD207831462A46FFF739FD20780221FFF723FD207803B0F0BD2981FF1F034B1A7800F0F80010431870704700BF82400040A1
:40208000034B1A7800F0F80010431870704700BF864000400B4B1B7803F00303012B02D0022B03D00CE0074B1B7909E0054B1B7903F07F0303EB43039B00034A13449B7887
:4020C00000207047006000403C85FF1F0E4B70B51E460E4C0025E41AA410A54204D056F8253098470135F8E700F0E0F8084B094C1E46E41AA4100025A54204D056F825301C
:4021000098470135F8E770BDB8220000B8220000B8220000C022000010B5431E0A44914204D011F8014B03F8014FF8E710BD03460244934202D003F8011BFAE770470000C2
:402140000000000010510040100040510040300000000140001000140140000800400140000A004C0140000200500140200000003031323334353637383941424344454692
:40218000000000002800000000010400010000000000000000014359555342000000303030303100000000000000000012034D005300460054003100300030000100000098
:4021C00001000000C82100000100000098220000000000000000000001000000E0210000010000007822000002000000042200000000000000000000000000000022000053
:40220000000000000000810240000000000002024000000002030000040309042C0343007900700072006500730073002000530065006D00690063006F006E00640075009F
:40224000630074006F0072002C0352006F0061006400720075006E006E0065007200200043006F006E00740072006F006C006C006500720000000000090220000101008066
:40228000FA09040000020000000007058102400000070502024000001201000200000008B40451800000010280010000F8B500BFF8BC08BC9E4670474D00000015020000E9
:4022C000F8B500BFF8BC08BC9E46704729000000E02200000881FF1F28000000B804000000000000FFFF00007F8000001F0000000000C233846700001B000000A05B940102
:40230000FFFF00000000000000000000000000000000000000000000000000000000000000000000000000000000000000000000000000000000000000000000000000009F
:40234000000000000000000000000000000000000000000000000000000000000000000000000000000000000000000000000000000000000000000000000000000000005D
:40238000000000000000000000000000000000000000000000000000000000000000000000000000000000000000000000000000000000000000000000000000000000001D
:4023C00000000000000000000000000000000000000000000000000000000000000000000000000000000000000000000000000000000000000000000000000000000000DD
:40240000000000000000000000000000000000000000000000000000000000000000000000000000000000000000000000000000000000000000000000000000000000009C
:020000040003F7
:0200000480007A
:400000000145004003520040015A0040025B00400364004002650040680001402E0101404C02014044030140510401404C050140660601404907014001090140010B0140F1
:40004000010D0140581401404E150140551601404517014002190140031B0140094001400F4101400C420140054301400145014006460140084701400C48014007490140DF
:40008000094C0140054D014009500140035101407E02600461047C41970127842F84800F836F846F840F870F020109020B01140219011B061D011F022D012E022F0A3001DD
:4000C00033033508360237043B083E404021410549FF4AFF4BFF4DA04F015018540F580459045A045B045C995D995F016040628064406540668068406A806C406D206E80A4
:4001000085018C018D018E0690029110920194019602980199079A0A9F30A10CA50CA90AAA10AF10B003B101B204B310B410B50EB608B720B922BA02BF05C021C105C5039D
:40014000C6E2C74CC83DC9FFCAFFCBFFCDAFCE07CF01D018D280D804D904DA04DB04DC99DD99DF01E040E280E440E540E680E840EA80EC40ED20EE80010205400A200E6876
:400180001002160419801B011D401E681F01201021A02620275A2B012C402D082E9031A036A0370238103F84435047504A014E024F04544255015754588059205A015B086F
:4001C0007680C088C274C441CAF8CCBCCE54D03CD218D60F011D045006280702080209100A050B010C020E040F80131C15051708181C191C1A621C601D011E181F102078C5
:4002000024382505270828022A042B202C282E502F403001313C334034063580367837033A20580459045C995F01813083C9859E87608B0F8C088DFD8E028F0295739994C0
:400240009B609C04A408A605A802ADCFAF30B002B1FFB208B404B601B808BE11BF01D40FD804D904DB04DC09DD90DF05008004680A020D200F0211201304168217141901A1
:400280001A061B081C4A1D601F42234024822510268327102A102B092D082F0631203208330434403626380839203A823B823C943E0159815A045B2063287A2083488440A7
:4002C00087208D0290109306963199809B089CC09D2A9E04A040A101A220A314A683C0E1C2C1C4F6CA78CCF6CEFFD60FD806DE02E040E201002C011002100504063C070825
:40030000081C0B1C0F201030120813031401150219041B081C201D1C1E04220226012830291C2A042C012F10303C320233013401353C37023E103F404005460449FF4A07A6
:400340004BFF4C404D204EF04F055008540F580459045A045B045C995D925F05604061A862406320849E866088308AC98B018E0F94FD960298949A609CCF9D049E30A30653
:40038000A473B2FFB301B504B702BE04BF10D804D904DC90DF01000A020803200490050807200AA00B020C400E1A100811021212170819201AA01B011F0421302204230253
:4003C00024202640270428042B012C8030023140320433203640380839203B423F10482049804C0C52405A405B16610462207A08909293D2942C95209631970899409A10A9
:400400009B089CC09D28A005A101A202A348A60CA701AF10B604C0EEC2EDC42FCA8CCC1FCE2FD208D60FD806DE04E601EC100102020104C50502063A08960A68110214FE14
:4004400016011704180E19021AF01CA31E5C2101247F2F02310134FF37063E103F014056410249FF4AFF4BFF4DA04F015018580459045A045C905D095F0160406280644058
:400480006540668068406A806C406D206E80800488018B028F049204950299049E0C9F01A003A702AB04AC03B008B104B202B301B401B604B702B828BE50BF41C056C10249
:4004C000C53EC6C4C720C82FC9FFCAFFCBFFCDAFCE07CF01D018D280D804D904DA04DB04DC99DD99DF01E040E280E440E540E680E840EA80EC40ED20EE80002001020412F7
:400500000608072009400B400E1A10821708195A1A021B141C04210922402540274129082B082C402F0131883210350136103704388039203C083F0240804111452048805B
:4005400049544E014F2050025180522053025C105D106501678073408F129092912092209382940C96519A409B089C849D849F30A024A120A349A482A62DC07AC2E9C429D2
:40058000CA96CCEECECCD024D23CEC40EC40E601E201040A05DC0654072209140A080C530D100E0C0F40150C177118531A041B201F03200322442420264529092BD02D10AC
:4005C0002FAC300F323033E03440371F38083A023B083E10540F580459045B045C225D905F01801081C0822083108410858086608710880889C08A018B208C108D078EA0C6
:40060000910C930195709820990C9A1F9B029C0B9DB09E049F40A10BA304A407A508A701A80CAA01AB0FAC0CAE02AFF0B040B280B30FB430B5F0B60FBA20D804D904DC99AF
:40064000DF01001403020440050506080A080E0910A014011728181019201B061D051E0A1F202180220424082510261027202B062D102E012F2130603180320434013580FA
:400680003609372038243A403C083D203F8249804B80580459025AA0650267809064911092A193829418960898049A489B089C409D209F20A0A4A208A341A615A702AC80D7
:4006C000AD20B002B308B510B680C0F7C2C2C4ECCAFCCCFECEFED60FE810EC20EE0801A30201035C0414050E060A07F0080A0A141301141E157F180619C51A181B3A1C18A6
:400700001E0621FE2301240E2D962F683001321E35FF361E3F10580459045C095F01842C850C860389068A0C8C318D0A8E0694409501983199019A0E9E40A208A613A8803B
:40074000AB01AD0CB040B280B30EB40FB501B630B880B908BA20BE45BF10C045C103C5C0C6B0C70EC81AC9FFCAFFCBFFCEF0CF44D00CD401D804D904DA04DB04DC92DD22F2
:40078000DF01E6C0EA40EB0200140302050206080720082009880A080E1A102812401708180419841A401C401E1120202218231027042B052F41312834043618370138083E
:4007C0003B903C083F024020430248804A825018530858825914802081028202911092809382940896519A489B099C449D809F24A024A1A8A345A410A61DAB40C077C2E7F7
:40080000C42ECA9CCCE6CECED003D208D60FE280EE02E280EE02E810EC20EE0832423320368037023F024320CCF0CE80D010014008200D080E013F8082028D4096809F024A
:40084000A682A701C040C2E0CE20E28057108240968098209F02A680A741AE01B508D440E680E81098209F02A680A751B74081021B0830808308A502C608CC0809020F4040
:400880004401A502B480C20CD004EC022080240880208B019820A680A741AB10AF02C860E420EEC01B40A740AE80B040B404C640EE101C021F80340288019C01AF40C60199
:4008C000CC01E201AF80B001B402E808EC040004010109010A040B01100411011A041B0100AF10A011020000E4000000000012000400083434000400000000004000010027
:4009000000000000C00000000200000202000000000000000000000000002000000000000000000000000000000000000000000000000000000000000000000000000000D1
:400940000000000000000000000000000000000000000000000000000000000000000000000000000000000000000000000000000000000000000000000000000000000077
:400980000000000000000000000000000000000000000000000000000000000000000000000000000000000000000000000000000000000000000000000000000000000037
:4009C00000000000000000000000000000000000000000000000000000000000000000000000000000000000000000000000000000000000000000000000000000000000F7
:400A000000000000000000000000000000000000000000000000000000000000000000000000000000000000000000000000000000000000000000000000000000000000B6
:0200000490006A
:0400000000004005B7
:0200000490105A
:04000000BC90ACAF55
:0200000490303A
:020000002DD4FD
:0200000490402A
:4000000000000000000000000000000000000000000000000000000000000000000000000000000000000000000000000000000000000000000000000000000000000000C0
:400040000000000000000000000000000000000000000000000000000000000000000000000000000000000000000000000000000000000000000000000000000000000080
:400080000000000000000000000000000000000000000000000000000000000000000000000000000000000000000000000000000000000000000000000000000000000040
:4000C0000000000000000000000000000000000000000000000000000000000000000000000000000000000000000000000000000000000000000000000000000000000000
:0200000490501A
:0C00000000012E16106900012E253E3D67
:00000001FF