:400000000080002011000000210100002101000008B5044B1A6803F53F5302331A6000F081F800BFFA46004010B5054C237833B9044B13B10448AFF300800123237010BDBA
:400040002881FF1F00000000D41B0000084B10B51BB108480849AFF300800848036803B910BD074B002BFBD0BDE81040184700BF00000000D41B00002C81FF1F0881FF1F23
:400080000000000038B5022001214FF4804241F6FF7301F083FB054601F09AFC0446022102460B4601F0AEFC204645F6A0310A4B1A8801F0BBFC2846214601F059FC2846E5
:4000C000012101F0FBFB0020012100F00BFB00F041FB0028FBD038BD4481FF1F08B5FFF7D1FF62B6022000F0EDFB0B490A680B4B1A70C2F307225A704A689A70C2F307224B
:40010000DA70012000F0F4FB0128FAD10349042200F05AFBE9E700BF4481FF1F5481FF1FFEE700BF08B5104E104D16E029686B68AC68002204E051F8040B43F8040B0432FD
:40014000A242F8D1E868002203E0002143F8041B04328242F9D11035013E002EE6D101F0FFFCFFF7BBFFFEE701000000641D000008B5134A134B1A60134A136843F400735E
:40018000136000230AE0032B03D8104A52F8231000E00F490F4A42F8231001332F2BF2D90D4B1A780D4B1A700A4A0D4B1A6000F0F3F801F069FB00220A4B1A6008BD00BFF1
:4001C0000004FA050CED00E014ED00E000000000210100000080FF1FBC7600400481FF1F08ED00E00081FF1FFEE700BFF0B40022174611E050F82760F3B226F0FF0608E0CA
:4002000001EB420511F812406D78A5550132013BDBB2002BF4D10137222FEBD9F0BC704708B50A46002101F0CCFC08BD38B51D22294B1A801823294A137033210232118085
:4002400002321370BF2102321180023213700622234B1A705222A3F580731A70214B1B78DBB2214A13704FF4E262204B1A8041F25122023B1A80002419250CE01C4B1B78F7
:4002800003F0010343EA440404F003044FF4F07001F0EAFA013D0DB1032CEFD115B90320FFF7A2FF134B4FF480721A8007221A700121114A117008210232117000221A7084
:4002C00005331A700222083B1A700C4A137843F00703137038BD00BF8040004082400040004300400F010049A146004022420040254200400440004006400040A243004077
:40030000F8B51B4B1B78DBB21A4E3478E4B21A4F3D78EDB203F00701184A11701B090132137044F00303337045F003033B701322134B1A70602203F2F4731A70022203F20A
:400340007F131A7020230F4A13700A207432107010211C3211700332137004220A4B1A7001F074FB3D7034704422084B1A70F8BDCF010049F8460040F94600406E58004070
:400380000D510040905A00405B5B00407658004008B501F00BFC08BD38B572B6384A137843F00403137000240CE0364963001A1952000A4423445B00C8589188FFF730FF33
:4003C0000134E4B2062CF0D94FF090402E49FFF70DFF2E480421FFF723FF2D480421FFF71FFF2C480421FFF71BFF2B480421FFF717FF2A4A137843F002031370103213787A
:4004000043F002031370264C237843F040032370A2F58632513A137843F010031370214821490822FFF7B4FF204821490A22FFF7AFFF204820490A22FFF7AAFF1F48204909
:400440000822FFF7A5FF1F481F490822FFF7A0FFC4221E4B1A701E4A137843F0080313701C4D61232B70FFF7E1FE81232B70FFF747FF194821460E22FFF78AFF38BD00BF9A
:40048000E8460040D81B00008C0000480076004008760040107600401876004003500140A04300400251004078080048C051004080080048F05100408C08004812510040CC
:4004C0009808004832510040A00800485B0201402243004000480040B0430040F8B501F0CBF90546404A137843F0010313701032137843F00103137001273C4B1F700226FA
:40050000943B1E7002F5E2521B32137803F07F031370002001F09AFA354C237803F0F9032370344A137803F0DF03137023783B432370384601F08AFA282001F087FA2E4BED
:400540001A7802F07F021A701A7802F0BF021A70237833432370304601F078FA237843F0040323700023254A13700132137004E0FF21234AD15401339BB2082BF8D92846E4
:4005800001F07EF91720072101F07EFA17201D4901F066FA1820072101F076FA18201A4901F05EFA0120072101F06EFA0120174901F056FA0220072101F066FA02201449FA
:4005C00001F04EFA1620002101F05EFA1620114901F046FA0C20072101F056FA0C200E4901F03EFAF8BD00BFA54300409D6000409443004012600040F851004084600040D1
:40060000A081FF1FA50D0000050C0000310D0000690D0000AD0D0000510E000008B5234B18700023224A1370224A1370224A1370224A1370224A1370224A1370224A13708C
:40064000224B4FF400021A604FF080721A6002221A6004221A6003201D4A10704FF480021A6020221B4B1A7011B1012906D00BE0194A137803F0FE0313700AE0164A137803
:4006800043F00103137004E0134A137843F0010313700322114B1A708022203B1A70012001F0E2F804220E4B1A7008BDC081FF1FC681FF1FC481FF1FC581FF1FC181FF1FC3
:4006C000AC81FF1FC381FF1F3C82FF1F00E100E09E6000409C60004009600040286000401260004038B505460C46064B1B7823B9FFF7F4FE0122034B1A7028462146FFF71B
:400700008DFF38BD4C81FF1F00230A4A13700A4A13700A4A13700A4A13700A4A13700A4A13700A4A13700322094B1A708022203B1A707047C681FF1FC481FF1FC581FF1FDC
:40074000C181FF1FAC81FF1FC381FF1F3C82FF1F28600040014B1878704700BFC581FF1F10B5044600EB40008000144B1844037913F0800F03D00A0C4FF4804302E00B0CA7
:400780004FF48042012C02D0022C07D00CE00020014601F041F80A4B185505E00020014601F01CF8064B1855631EDBB2072B03D801F00EF9034B185510BD00BFD081FF1F19
:4007C0009481FF1FA081FF1F2DE9F0410446431EDBB2072B68D80E46154600EB40039B00324A1344DB889BB2C3F500739D4207D900EB40039B001344DD88C5F50075ADB29E
:4008000004EB44039B00294A1344DB7843EA15232749220188188B54EBB24370254B1B5DFF2B03D120463146FFF79AFF04EB44039B001E4A134400225A705EB355B31E4FAF
:40084000385D01F057F8DFF86C8018F804002946FE22112301F0D6F822010832174D2A4492B218F80400B1B201F0E0F8385D18F8041001F07DF8385D012101F01FF8240194
:400880002B5D43F002032B552B5D03F0FD032B55BDE8F08104EB44039B00044A13445A79D2B22401064B1A55BDE8F081D081FF1FFC5F0040A081FF1F9481FF1F7060004093
:4008C000FE5F0040431EDBB2072B0BD8430003449B00054A134400225A705A79D2B20001024B1A54704700BFD081FF1FFE5F0040431EDBB2072B06D80001044B185C00F05A
:400900001000C0B270470020704700BFFE5F00401C4B19781C4A13880B449BB2138000230EE01A4A51680978C9B21948C1545168013151600133DBB21188013989B2118087
:40094000124A128892B20AB1072BEAD90D4A1278D2B2082A00D05BB10E490A7882F080020A700F210C4A117002210C4A117004E0022209490A7009490A70094A1370014A11
:40098000137070473C82FF1F4282FF1FB481FF1F00600040C281FF1FAD81FF1FC681FF1F3D82FF1F0222074B1A708022064B1A700F22064B1A700023054A1370054A13700D
:4009C00001207047C681FF1FC281FF1FAD81FF1F3C82FF1F3D82FF1F08B5FFF799FF08BD10B4184B197801F00F010239C9B2164A13880B449BB21380002010E0134B5C6879
:400A0000134A125CD2B222705A6801325A600130C0B20139C9B21A88013A92B21A800B4B1B889BB20BB10029E8D10A4B19700A4A137883F0800313700B22084B1A705DF89A
:400A4000044B7047296000404282FF1FB481FF1F006000403D82FF1FC281FF1FAD81FF1F0623064A1370064A13708022054B1A700022054B1A700120704700BFC681FF1F05
:400A8000AD81FF1FC281FF1F3D82FF1F064B9B6843B1054B9A6810709A6804490988518000229A60704700BFB481FF1F4282FF1F08B5134B1A78D2B21A701B78DBB213F03C
:400AC000800F02D00F4A137008BD0220FFF7DEFF0D4B1B7803F06003202B05D0402B06D043B900F08FFC06E001F01EF803E000F037FE00E0002010B90322024B1A7008BD67
:400B000028600040AD81FF1F0060004008B5084B1978084A13880B449BB213800022064B1A700120FFF7B2FF0322044B1A7008BD3C82FF1F4282FF1FC681FF1FAD81FF1F4D
:400B400008B50B4B1B78DBB2042B06D0062B07D0022B0BD1FFF7DAFF08BDFFF741FF08BD0320FFF793FF0322024B1A7008BD00BFC681FF1FAD81FF1F08B50022044B1A7009
:400B80000120FFF783FF0322024B1A7008BD00BFC681FF1FAD81FF1F08B50B4B1B7813F0FF0F07D0084A137843F0800307490B70002313700022064B1A700120FFF766FF60
:400BC0000322044B1A7008BDAC81FF1F08600040C681FF1FAD81FF1F08B5094B1B78DBB2042B06D0062B07D0022B07D1FFF7F4FE08BDFFF7C1FF08BDFFF7CEFF08BD00BFDC
:400C0000C681FF1F08B5284B1B78DBB213F0100F48D013F0800F0CD003F00F03012B16D1FFF746FF214B1B7813F0800F11D1012312E013F0400F03D0FFF7CEFF01230BE084
:400C400013F0200F07D0FFF77BFF012304E0002302E0002300E0002323B3134B1B7813F0800F1FD1124B1B78124A12781343124A13701278D2B29A4214D10C4B1B78DBB22E
:400C8000094A127812F0800F07D1084B1B78DBB2054A1370137803F00F03044A1278D2B29342EAD108BD00BF28600040AD81FF1FC281FF1F3D82FF1F296000400022064B1B
:400CC0001A80064B9B682BB1044A916800230B7092685380704700BF4282FF1FB481FF1F08B50F4B1B889BB213B9FFF75BFE15E002220C4B1A7000220B4B1A70FFF7DEFFDC
:400D00000A4AD179937943EA0123054A128892B29A4201D9024A1380FFF7FAFD012008BDB481FF1FC681FF1FC281FF1F006000400A4A137803F0FE031370094B9B7C094B55
:400D40001B7B03F00303012B04D0064AD37B83F08003D3730122034B5A7370470B600040FC5F0040D081FF1F0B4A137803F0FD0313700A4B93F82230094B1B7E03F00303F2
:400D8000012B04D0064AD37E83F08003D3760122034B5A76704700BF0B600040FC5F0040D081FF1F08B5FFF7AFFC08BD70B4234B1C78E4B201233CE014F0010F36D01A464E
:400DC00019011F48084481784078014011F0010F17D003EB430080001A4D2844007910F0800F0ED0164D1E01A85D00F0FE00A85503EB43008000134D28444579EDB212482C
:400E0000855511F0020F0ED002EB420080000D4D2844007910F0800F05D102EB420080002844002545701201084881540133DBB26408002CC0D170BC704700BF9F6000409D
:400E400070600040D081FF1FFE5F00407260004008B500F0FFFC08BD70B588B0054603AC174E0FCE0FC43368237035B322232B7003236B7001A800F01FFE002402231AE07B
:400E800008AA224412F81C2C08A901EB121111F8141CE954581C00212954981C02F00F0208AE324412F8142C2A54DA1CA9540134E4B20433DBB2212BE2D908B070BD00BFA8
:400EC000041C000030B4012240E0114623481301C4180C25C5541F23637002EB42039B001F4803445B7913F0FF0F12D002EB42039B0003441B7913F0800F04D01001194BD5
:400F000003449D700AE01001164B03440820987004E01001134B0344802098704B000B449B000F480344DC88E4B208010B4901448C71D888C0F30720C871D888C0B208711E
:400F4000DB88C3F307234B710132D2B2082ABCD9FF22054B1A7030BC704700BF70600040D081FF1FFC5F00400A600040074B1B78074A02EBC30253681A7C824203D903EB0C
:400F8000C003586970470020704700BFC081FF1F541C0000F8B5404B1B7813F0FF0F79D03D4B18780138C0B2FFF7E0FF047AC2683A4B1878C0B200236AE01178814264D1B7
:400FC0003749095CC9B25578A9425ED1917801F07F01D67806F00306DFF8C8E04D000D44AD000EEB05074FF0000C87F803C092F802C087F804C092F803C00EF805C09588C3
:401000003D8192F90250002D0DDA012E01D1072700E00D274D000D44AD00224E35446F7101266E700CE0012E01D1052700E009274D000D44AD001B4E35446F7100266E706B
:40104000DFF868E00F010EEB07060125B57001FA05F529448900134D29440D89C5F307250EF807500D89EDB27570CE88F6B20E4D3D44AE71CE88C6F30726EE71CE88F6B2B5
:401080002E71C988C1F30721697108320133DBB2A34292D3F8BD00BFC581FF1FC181FF1FB081FF1FD081FF1F70600040FC5F0040034B1A78034B03EBC2035868704700BF8D
:4010C000C081FF1F541C000008B5074B18780138C0B2FFF74BFF28B14268127900EBC203586908BD002008BDC581FF1FF8B500220EE0674E53009D18AD007419002171556F
:40110000A170E1702181A172617061710132D2B2082AEED940B90AE000225E49CA545E49CA540133DBB200E00023002BF4D05B4B1B7813F0FF0F00F0A980584B1878013834
:40114000C0B2FFF713FF4368DB7913F0400F05D0534A137843F00103137004E0504A137803F0FE031370057A012461E0C16800235AE08A7802F07F02944252D1264604EB39
:4011800044029200424F3A44128992B28F88BA4206D204EB44029200DFF8F4E0724417810A783C4FBA5CD2B24F78BA4239D191F802C0374F72003244920007EB020E8EF877
:4011C00004C091F803E007F802E0CA7802F0030291F90270002F11DA012A02D14FF0070C01E04FF00D0CDFF8A8E072009719BF00774487F805C001227A7012E0012A02D1CA
:401200004FF0050C01E04FF0090C214F4FEA460E0EEB060292003A4482F805C016460022727008310133DBB2AB42A2D30134E4B2082C9BD9C06800220CE0837803F07F0307
:4012400010F8084B03EB43039B0016490B449C700132D2B2AA42F0D3FFF736FF124B1860002301210EE00A4C4A00501880002044C380028913449BB203F0010213449BB2F9
:401280000131C9B20829EED9FFF71CFEF8BD00BFD081FF1FB081FF1F4082FF1FC581FF1FC381FF1FD881FF1FCC81FF1F08B5154B1A7902F07F02531EDBB2072B20D8530021
:4012C00013449B0010490B44997841F0010199700021D970597841F0020159701B7913F0800F05D01201094B13448D229A7004E01201064B134489229A70FFF7B1FB08BDA2
:40130000002008BD00600040D081FF1FFC5F0040264B1B7903F07F035A1ED2B2072A43D810B55A001A44920021490A44917801F0FE0191700021D17019017F241D4844547F
:40134000517801F0FD015170127912F0800F14D003EB4302920016490A445278D2B2012A05D11B0102461A440C23937019E01B01104A1A440D23937013E003EB4302920087
:401380000B490A445278D2B2012A05D11B01094A1A440823937004E01B01064A1A4409239370FFF75DFB10BD0020704700600040D081FF1FFC5F004010B50E4B1C79E4B27F
:4013C0000D4B18780138C0B2FFF7D0FD43681B799C4201D9012C0AD8084A135DDBB208490B55044B9B78DBB21355012010BD002010BD00BF00600040C581FF1FB081FF1F4D
:401400004082FF1F10B5964B1B78DBB20021954A118013F0800F00F0B380914A5278D2B20A2A00F27981DFE812F06F00770177017701770177010B00770198007701A000B4
:40144000874BDB78DBB2012B09D1FFF731FE4268844B5A6012221A80FFF742FC10BD804BDB78DBB2022B13D17D4B9878FFF77EFD002800F0538142687A4B5A605A68D17868
:401480005A68927842EA01221A80FFF729FC10BD734BDB78DBB2032B05D032E00A7811440133DBB201E000236F496D4A9278D2B29A4203D90A7812F0FF0FEFD1684B9B7873
:4014C000DBB2EE2B00D16949654B9B7813F0FF0F0BD0634B9B78DBB2654A127C934204D1644C2046FFF7B8FC21460B7813F0FF0F00F016810B785B4A13805160FFF7F0FB50
:4015000010BD00F011FB10BD13F0030317D0022B40F0088153490B80514B1B7903F07F0303EB43039B00544A13449A78D2B2534B1A7000225A704B60FFF7D2FB10BD494938
:4015400002230B804E4B1A78D2B24C4B1A7000225A704B60FFF7C4FB10BD424B01221A80484A5A60FFF7BCFB10BD3E4A012313803B4B1B7944490B445360FFF7B1FB10BD6B
:40158000374A5278013A0A2A00F2CE80DFE812F04B00CC009700CC000B00CC00CC00CC001300CC0030002E4B9B78DBB2374A1370FFF756FA10BD2A4B9B7803F0FF041BB1F6
:4015C000601EC0B2FFF7D2FC04B110B9002C40F0AD802C4B1B78DBB29C4206D0294B1C7001202B4B1870FFF781FDFFF739FA10BDFFF7E2FE002800F09B80194A1379DBB2D7
:401600001279D2B223490A70234AD25C1E49C95CD3B28B4204D001221D4B1A70FFF7BAFCFFF71EFA10BD03F00303012B36D04BB1022B7FD10A4B9B7813F0FF0F7CD1FFF76C
:4016400067FE10BD064B9B78DBB2012B76D10C4A137803F0FD031370FFF702FA10BD00BF00600040B481FF1FAC1C0000401C00002C1D00004482FF1FD081FF1F5081FF1F5D
:40168000C381FF1FC581FF1FB081FF1FAC81FF1FC481FF1FC181FF1F4082FF1F2D4B1B7913F0FF0F4CD12B4B98781B79DBB22A49CA5C22EA0002CA54FFF7D2F910BD03F000
:4016C0000303012B17D04BB1022B3BD1214B9B7813F0FF0F38D1FFF7E9FD10BD1D4B9B78DBB2012B32D11D4A137843F002031370FFF7B6F910BD174B1B7913F0FF0F27D105
:40170000144B98781B79DBB21349CA5C22EA0002CA54FFF7A5F910BD002010BD002010BD002010BD002010BD002010BD002010BD002010BD002010BD002010BD002010BDC8
:40174000002010BD002010BD002010BD002010BD002010BD00600040C881FF1FC381FF1F08B50B4B1B7813F0800F0CD0084B5B78DBB2012B09D1074B074A5A6012781A8011
:40178000FFF7AEFA08BD002008BD002008BD00BF00600040B481FF1F181C0000F0B583B084468E4617461E460B4C0225257000230093019328466146724600F0E5F8207850
:4017C0003946324600F0BAF82078294600F0A4F8207803B0F0BD00BF0C81FF1FF0B583B086460F4616461D460A4C0120207000230093019371463A4600F0C6F8207831465E
:401800002A4600F09BF82078022100F085F8207803B0F0BD0D81FF1FF0B583B086460F4616461D460A4C0023237000930193184671463A4600F0A8F8207831462A4600F06A
:401840007DF82078022100F067F8207803B0F0BD0E81FF1F024B1878C0F38010704700BF8F450040000000000230800803D000BF01380046FCD17047EFF3108072B67047FA
:4018800080F31088704700BF0B4A7F2313708021517007E0DA0002F1804202F5F042013BDBB21370002BF5D1DB0003F1804303F5F04300221A7070471081FF1F172815D8F4
:4018C00031B103010A495A5C42F020025A5405E0030107495A5C02F0DF025A540001044A835C43F00103835400207047012070471070004017280BD80001064BC25C02F058
:40190000FE02C254C25C02F0DF02C25400207047012070471070004017280BD80001064A835C03F0F10301F0070143EA4101815400207047012070471070004041F6FF738D
:40194000994201D14FF4005141F6FF739A4201D14FF40052172808D8C00000F1804000F5EC408180C280002070470120704700BF172805D8034B03EB0010417200207047E6
:40198000012070471070004017281BD810B4C00000F1804404F5EC44D201D2B201F07F01114321709DF804201201D2B203F00F03134363709DF8083003F00F03A3700020CB
:4019C000E07001E0012070475DF8044B704700BF10B5FFF751FF0A4B5B78182B0BD9084A1478013B5370E30003F1804303F5F0431B78137000E0FF24FFF742FF204610BD45
:401A00001081FF1F10F0800F0CD111F4704F0BD1C00000F1804000F5F04001808270C37000207047012070470120704710F0800F08D1C00000F1804000F5F0408180C280E7
:401A4000002070470120704701BE704708B5034B1B7A03FB00F0FFF707FF08BD1881FF1F70B504460E46074B1D681F2802D90020FFF7EAFF04F01F04103455F8240045F877
:401A8000246070BD08ED00E038B504460D46072902D90020FFF7D8FF1F2C02D90020FFF7D3FF04F01F0000F1604000F564406D01EDB2057038BD00BF134B1B78DBB20360BC
:401AC000124A127843EA02230360114A127843EA024303600F4A127843EA026303600E4B1B78DBB243600D4A127843EA022343600B4A127843EA024343600A4A127843EAC8
:401B000002634360704700BF0301004904010049EC46004002010049010100490001004905010049060100490B4B1B7803F00303012B02D0022B03D00CE0074B1B7909E0FF
:401B4000054B1B7903F07F0303EB43039B00034A13449B780020704700600040D881FF1F0E4B70B51E460E4C0025E41AA410A54204D056F8253098470135F8E700F0E0F86B
:401B8000084B094C1E46E41AA4100025A54204D056F8253098470135F8E770BD4C1D00004C1D00004C1D0000541D000010B5431E0A44914204D011F8014B03F8014FF8E77D
:401BC00010BD03460244934202D003F8011BFAE7704700000000000020510040100040510040300000000140001000140140000800400140000A004C014000020050014018
:401C0000200000003031323334353637383941424344454600000000280000000001040001000000000000000001435955534200000030303030310000000000000000003C
:401C400012034D0053004600540031003000300001000000010000005C1C0000010000002C1D0000000000000000000001000000741C0000010000000C1D00000200000003
:401C8000981C0000000000000000000000000000941C0000FF000000000081024000FF00000002024000FF0002030000040309042C0343007900700072006500730073008B
:401CC0002000530065006D00690063006F006E0064007500630074006F0072002C0352006F0061006400720075006E006E0065007200200043006F006E00740072006F0081
:401D00006C006C0065007200000000000902200001010080640904000002FF000000070581024000000705020240000012010002FF000008B404518000000102800100008D
:401D4000F8B500BFF8BC08BC9E4670474D00000071010000F8B500BFF8BC08BC9E46704729000000781D00000881FF1F20000000400100000000000000000000FFFFFF00E3
:401D80007F8000000F0000000000E02EC05D00001800000000366E01000000000000000000000000000000000000000000000000000000000000000000000000000000002D
:401DC00000000000000000000000000000000000000000000000000000000000000000000000000000000000000000000000000000000000000000000000000000000000E3
:401E000000000000000000000000000000000000000000000000000000000000000000000000000000000000000000000000000000000000000000000000000000000000A2
:401E40000000000000000000000000000000000000000000000000000000000000000000000000000000000000000000000000000000000000000000000000000000000062
:401E80000000000000000000000000000000000000000000000000000000000000000000000000000000000000000000000000000000000000000000000000000000000022
:020000040003F7
:0200000480007A
:400000000145004005520040015A0040015B004002640040036500404C000140350101404A0201404603014066040140470501406B0601403F070140010B0140010D0140F6
:400040005114014041150140541601404517014002190140011B01400C4001400B41014008420140024301400145014006460140054701400D48014009490140034C0140BD
:40008000024D014007500140025101407E02001101010C0460017C4097012784810F826F840F850F876F01100320051007A008FD09010A020B020C300EC90F0410CF123084
:4000C00014941660170719211B121D101F6020732107249E250726602A0F2B082D043140330F34FF353037803A023B203E10580459045C985F118004811C85018702890127
:400100008B028D308F049102933D952C9602971099209B049C04A740A901AA01AB02AD30AF08B004B103B201B33CB402B540BB02D40FD804D904DB04DC99DD90DF010180DA
:400140000206030404020A200BC00E100F021040110A1288160819201B011E041F0A2010210122782424250426022710284029A02A042C022F28325836223704382439022F
:400180003B803C083D223E083F405C015EA878208001828483048702C013C2ACC44ECA7FCCEECEFFD6F0DE040007032105140620070A082009060B180D0A0F14121013205B
:4001C0001440151E160F18301E80204C211822022306244B2604284C2A012C082D0E2E4130103220332034C0351E360F37013E05540F580459045B045C995D905F05807FB9
:400200008601870F88FE89948A018B608C968DCF8E688F3090A3925C940E96F09D73A1FDA302A4C5A59EA63AA760AD30AFC9B1FFB6FFBE40BF01D804D904DF0100040140D0
:400240000282034404100504074008020A200B900C020D200E010F1011081210154117141A011C041E601F402201240225082705290A2B022C012D012F403240370538A8E9
:400280003D483F125D105E4A660867047E8080208908901092249402961097809B109C209F04A104A20AA301A404A510A6D0A720A802A904C07FC2FCC4F4CA9BCCC8CEFE38
:4002C000D6F0D860DE80E624031004A106520711090C0A070C540EA010F7150A19101D061E082077243126C22CC02D0C2E3430F03310340F3501370E39803F044034410671
:4003000049FF4AFF4BFF4DA04F0150185280580459045A045B045C995D995F016040628064406540668068406A806C406D206E808104840386048702920897019B019C03B4
:40034000A501AB04AC01B001B102B202B304B408B604B701B80ABE01BF44C034C106C52CC630C74EC83BC9FFCAFFCBFFCDAFCE07CF01D018D804D904DA04DC99DD09DF010A
:40038000E040E280E440E540E680E840EA80EC40ED20EE8001280302048006210A420C020F0210401108120114011580180819221A401C021D261E201F2021482290264451
:4003C000274028022E202F2032903304361838063A103C023E04410A450A4A084C804E084F06540256287001851087019004920694A895109690970498029A109B049C016D
:400400009D0E9E08A208A406A530A6C5A702AF20C027C299C48DCA68CC6ECEC7D0C3D224E002000102020A100C020E011401160218011A021D011E082304240827032A04D3
:400440002F0130033204330134103504360837023A023E403F044021410649FF4AFF4BFF4DA04F0150185280580459045A045B045C995D995F016040628064406540668052
:4004800068406A806C406D206E80805D81038220846685038610870C8E78903B910896809D01A066A208A440A608B007B104B278B308B4C0B502B701B802B9A0BF44C0215A
:4004C000C106C54EC6C0C723C83BC9FFCAFFCBFFCDAFCE07CF01D018D804D904DA04DC99DD09DF01E040E280E440E540E680E840EA80EC40ED20EE800040010B0440074434
:400500000A800B200C800E14110A1404170819081A801B311C481D011E121F02218022052304268027382C802E802F203040324136803802390841804310458047204924CE
:400540004B024D2050015104521276808021924494A0969099229B409C409D08A080A404A514A601A702C0DDC2ECC46CCAD0CC19CE03D03CD224E002E60400800413062CA6
:4005800009200B430E480F0C10131264144A158C1634171319D11B061F082240263528032A142DD12F0E306831303280330F340F35C0361039223A223B083E443F10400638
:4005C000460449FF4A074BFF4C404D204EF04F0550085401580459045A045B045C115D115F01604061A8624063208602870188018901930A940195029A019B01A704B10494
:40060000B201B308B402B501B702BE04BF50D40FD804D904DB04DC99DD90DF01008001020280032005200710080209080F1410A819541B211E2420C8210824082608274101
:4006400028022B012C082E14308031183520360A38603F14480450B0511059465A105C885D015E2080848F109101931495209604980899209C029D109F41A008A282A4C0E0
:40068000A508A720B004B308C06DC26CC40ECA48CCEECE6CD204D6FFE440E830EC80009601180268030404C50540063A073E080E0AF00CA30D160E5C0F0810FE1110120179
:4006C000130215181601170219201B401C7F1D201F40210E252027402B01311E336034FF35013B083E10580459045C905F0183038410860C882089028A038C098E10900C9A
:400700009211941C96029F04A010A414B21FB301B504B620B702BE40BF40C062C101C5EBC70CC813C9FFCAFFCBFFCEF0CF44D00CD40FD804D904DA04DB04DC91DD91DF0597
:40074000E6C0EA40EB020090032004A00509080209080C400E400F2210A018101A021F102260231024A0251527042C402E042F0833403509362037403B123D0A3E404002C9
:400780004110482049104A80500858205A885B01610462107B0184088601870191019248930694A097209820992D9A109C049F04A202A311A515C0F7C2BCC40CCAE0CCF881
:4007C000CED5D00CD204D60FD806DE08EA02EE02EA02EE02E8103280330136403C014310600162808402CC70CE80D010E21006025402668082808A809F11A002A6C0C080F2
:40080000D6A0E62051025B1085029F11A640AE02E040EC109F11A64081081908302084209D08C608CC080B400D084402C20CD004002005202408271084049F10AE40AF0155
:40084000C0C0C8A0E640EA40EE40042074048C10A004B010B120B404C080DE209C02AD08AF40B402E808010109010B01100211011A021B01002B10A008000000001113004C
:4008800001000001010001000000000040000C0000000000C0000000146060000000000008000000000000000000000000000000000000000000000000000000000000004C
:4008C00000000000000000000000000000000000000000000000000000000000000000000000000000000000000000000000000000000000000000000000000000000000F8
:4009000000000000000000000000000000000000000000000000000000000000000000000000000000000000000000000000000000000000000000000000000000000000B7
:400940000000000000000000000000000000000000000000000000000000000000000000000000000000000000000000000000000000000000000000000000000000000077
:400980000000000000000000000000000000000000000000000000000000000000000000000000000000000000000000000000000000000000000000000000000000000037
:0200000490006A
:0400000000004005B7
:0200000490105A
:04000000BC90ACAF55
:0200000490303A
:020000000D18D9
:0200000490402A
:4000000000000000000000000000000000000000000000000000000000000000000000000000000000000000000000000000000000000000000000000000000000000000C0
:400040000000000000000000000000000000000000000000000000000000000000000000000000000000000000000000000000000000000000000000000000000000000080
:400080000000000000000000000000000000000000000000000000000000000000000000000000000000000000000000000000000000000000000000000000000000000040
:4000C0000000000000000000000000000000000000000000000000000000000000000000000000000000000000000000000000000000000000000000000000000000000000
:0200000490501A
:0C00000000012E16106900012E231D8146
:00000001FF