:400000000080002011000000210100002101000008B5044B1A6803F53F5302331A6000F081F800BFFA46004010B5054C237833B9044B13B10448AFF300800123237010BDBA
:400040002881FF1F00000000E41B0000084B10B51BB108480849AFF300800848036803B910BD074B002BFBD0BDE81040184700BF00000000E41B00002C81FF1F0881FF1F03
:400080000000000038B5022001214FF4804241F6FF7301F08BFB054601F0A2FC0446022102460B4601F0B6FC204645F6A0310A4B1A8801F0C3FC2846214601F061FC2846BD
:4000C000012101F003FC0020012100F013FB00F049FB0028FBD038BD4481FF1F08B562B6FFF7D0FF022000F0F5FB0B490A680B4B1A70C2F307225A704A689A70C2F307222B
:40010000DA70012000F0FCFB0128FAD10349042200F062FBE9E700BF4481FF1F5481FF1FFEE700BF08B5104E104D16E029686B68AC68002204E051F8040B43F8040B0432ED
:40014000A242F8D1E868002203E0002143F8041B04328242F9D11035013E002EE6D101F007FDFFF7BBFFFEE701000000741D000008B5134A134B1A60134A136843F4007345
:40018000136000230AE0032B03D8104A52F8231000E00F490F4A42F8231001332F2BF2D90D4B1A780D4B1A700A4A0D4B1A6000F0FBF801F071FB00220A4B1A6008BD00BFE1
:4001C0000004FA050CED00E014ED00E000000000210100000080FF1FBC7600400481FF1F08ED00E00081FF1FFEE700BFF0B40022174611E050F82760F3B226F0FF0608E0CA
:4002000001EB420511F812406D78A5550132013BDBB2002BF4D10137202FEBD9F0BC704708B50A46002101F0D4FC08BD38B51D22294B1A801823294A13703321023211807F
:4002400002321370BF2102321180023213700622234B1A705222A3F580731A70214B1B78DBB2214A13704FF4E262204B1A8041F25122023B1A80002419250CE01C4B1B78F7
:4002800003F0010343EA440404F003044FF4F07001F0F2FA013D0DB1032CEFD115B90320FFF7A2FF134B4FF480721A8007221A700121114A117008210232117000221A707C
:4002C00005331A700222083B1A700C4A137843F00703137038BD00BF8040004082400040004300400F010049A146004022420040254200400440004006400040A243004077
:400300002DE9F0411E4B1B78DBB21E4E3478E4B21D4F3D78EDB203F007011C4A11701B090132137044F00303337045F003033B704FF04408164B83F800800222F0331A7048
:40034000602203F204731A70012203F27F131A702023104A13700921683211704021203211700332137004220B4B1A700A2001F075FB3D703470094B83F80080BDE8F08139
:40038000CF010049F8460040F94600406E5800400D510040985A00405B5B00407658004008B501F00BFC08BD38B572B6384A137843F00403137000240CE0364963001A19CF
:4003C00052000A4423445B00C8589188FFF728FF0134E4B2062CF0D94FF090402E49FFF705FF2E480421FFF71BFF2D480421FFF717FF2C480421FFF713FF2B480421FFF77F
:400400000FFF2A4A137843F0020313701032137843F002031370264C237843F040032370A2F58632513A137843F010031370214821490822FFF7B4FF204821490A22FFF78E
:40044000AFFF204820490822FFF7AAFF1F4820490A22FFF7A5FF1F481F490822FFF7A0FF84221E4B1A701E4A137843F0080313701C4D61232B70FFF7D9FE81232B70FFF739
:400480003FFF194821460E22FFF78AFF38BD00BFE8460040E81B0000840000480076004008760040107600401876004003500140A043004002510040B0080048F0510040C3
:4004C000B808004812510040C408004820510040CC08004832510040D8080048DB1601402243004000480040B0430040F8B501F0CBF90546404A137843F001031370103235
:40050000137843F00103137001273C4B1F700226943B1E7002F5E2521B32137803F07F031370002001F09AFA354C237803F0F9032370344A137803F0DF03137023783B43FB
:400540002370384601F08AFA282001F087FA2E4B1A7802F07F021A701A7802F0BF021A70237833432370304601F078FA237843F0040323700023254A13700132137004E0D0
:40058000FF21234AD15401339BB2082BF8D9284601F07EF91720072101F07EFA17201D4901F066FA1820072101F076FA18201A4901F05EFA0120072101F06EFA01201749B0
:4005C00001F056FA0220072101F066FA0220144901F04EFA1620002101F05EFA1620114901F046FA0C20072101F056FA0C200E4901F03EFAF8BD00BFA54300409D600040EC
:400600009443004012600040F851004084600040A081FF1FB50D0000150C0000410D0000790D0000BD0D0000610E000008B5234B18700023224A1370224A1370224A137072
:40064000224A1370224A1370224A1370224A1370224B4FF400021A604FF080721A6002221A6004221A6003201D4A10704FF480021A6020221B4B1A7011B1012906D00BE081
:40068000194A137803F0FE0313700AE0164A137843F00103137004E0134A137843F0010313700322114B1A708022203B1A70012001F0E2F804220E4B1A7008BDC081FF1F15
:4006C000C681FF1FC481FF1FC581FF1FC181FF1FAC81FF1FC381FF1F3C82FF1F00E100E09E6000409C60004009600040286000401260004038B505460C46064B1B7823B93D
:40070000FFF7F4FE0122034B1A7028462146FFF78DFF38BD4C81FF1F00230A4A13700A4A13700A4A13700A4A13700A4A13700A4A13700A4A13700322094B1A708022203B9B
:400740001A707047C681FF1FC481FF1FC581FF1FC181FF1FAC81FF1FC381FF1F3C82FF1F28600040014B1878704700BFC581FF1F10B5044600EB40008000144B18440379B4
:4007800013F0800F03D00A0C4FF4804302E00B0C4FF48042012C02D0022C07D00CE00020014601F041F80A4B185505E00020014601F01CF8064B1855631EDBB2072B03D84D
:4007C00001F00EF9034B185510BD00BFD081FF1F9481FF1FA081FF1F2DE9F0410446431EDBB2072B68D80E46154600EB40039B00324A1344DB889BB2C3F500739D4207D903
:4008000000EB40039B001344DD88C5F50075ADB204EB44039B00294A1344DB7843EA15232749220188188B54EBB24370254B1B5DFF2B03D120463146FFF79AFF04EB440368
:400840009B001E4A134400225A705EB355B31E4F385D01F057F8DFF86C8018F804002946FE22112301F0D6F822010832174D2A4492B218F80400B1B201F0E0F8385D18F826
:40088000041001F07DF8385D012101F01FF824012B5D43F002032B552B5D03F0FD032B55BDE8F08104EB44039B00044A13445A79D2B22401064B1A55BDE8F081D081FF1F52
:4008C000FC5F0040A081FF1F9481FF1F70600040FE5F0040431EDBB2072B0BD8430003449B00054A134400225A705A79D2B20001024B1A54704700BFD081FF1FFE5F0040EF
:40090000431EDBB2072B06D80001044B185C00F01000C0B270470020704700BFFE5F00401C4B19781C4A13880B449BB2138000230EE01A4A51680978C9B21948C154516818
:40094000013151600133DBB21188013989B21180124A128892B20AB1072BEAD90D4A1278D2B2082A00D05BB10E490A7882F080020A700F210C4A117002210C4A117004E0AB
:40098000022209490A7009490A70094A1370014A137070473C82FF1F4282FF1FB481FF1F00600040C281FF1FAD81FF1FC681FF1F3D82FF1F0222074B1A708022064B1A7003
:4009C0000F22064B1A700023054A1370054A137001207047C681FF1FC281FF1FAD81FF1F3C82FF1F3D82FF1F08B5FFF799FF08BD10B4184B197801F00F010239C9B2164AA2
:400A000013880B449BB21380002010E0134B5C68134A125CD2B222705A6801325A600130C0B20139C9B21A88013A92B21A800B4B1B889BB20BB10029E8D10A4B19700A4A01
:400A4000137883F0800313700B22084B1A705DF8044B7047296000404282FF1FB481FF1F006000403D82FF1FC281FF1FAD81FF1F0623064A1370064A13708022054B1A709A
:400A80000022054B1A700120704700BFC681FF1FAD81FF1FC281FF1F3D82FF1F064B9B6843B1054B9A6810709A6804490988518000229A60704700BFB481FF1F4282FF1F22
:400AC00008B5134B1A78D2B21A701B78DBB213F0800F02D00F4A137008BD0220FFF7DEFF0D4B1B7803F06003202B05D0402B06D043B900F08FFC06E001F01EF803E000F048
:400B000037FE00E0002010B90322024B1A7008BD28600040AD81FF1F0060004008B5084B1978084A13880B449BB213800022064B1A700120FFF7B2FF0322044B1A7008BDFD
:400B40003C82FF1F4282FF1FC681FF1FAD81FF1F08B50B4B1B78DBB2042B06D0062B07D0022B0BD1FFF7DAFF08BDFFF741FF08BD0320FFF793FF0322024B1A7008BD00BF03
:400B8000C681FF1FAD81FF1F08B50022044B1A700120FFF783FF0322024B1A7008BD00BFC681FF1FAD81FF1F08B50B4B1B7813F0FF0F07D0084A137843F0800307490B7016
:400BC000002313700022064B1A700120FFF766FF0322044B1A7008BDAC81FF1F08600040C681FF1FAD81FF1F08B5094B1B78DBB2042B06D0062B07D0022B07D1FFF7F4FE44
:400C000008BDFFF7C1FF08BDFFF7CEFF08BD00BFC681FF1F08B5284B1B78DBB213F0100F48D013F0800F0CD003F00F03012B16D1FFF746FF214B1B7813F0800F11D10123E6
:400C400012E013F0400F03D0FFF7CEFF01230BE013F0200F07D0FFF77BFF012304E0002302E0002300E0002323B3134B1B7813F0800F1FD1124B1B78124A12781343124A0E
:400C800013701278D2B29A4214D10C4B1B78DBB2094A127812F0800F07D1084B1B78DBB2054A1370137803F00F03044A1278D2B29342EAD108BD00BF28600040AD81FF1FCC
:400CC000C281FF1F3D82FF1F296000400022064B1A80064B9B682BB1044A916800230B7092685380704700BF4282FF1FB481FF1F08B50F4B1B889BB213B9FFF75BFE15E03C
:400D000002220C4B1A7000220B4B1A70FFF7DEFF0A4AD179937943EA0123054A128892B29A4201D9024A1380FFF7FAFD012008BDB481FF1FC681FF1FC281FF1F0060004090
:400D40000A4A137803F0FE031370094B9B7C094B1B7B03F00303012B04D0064AD37B83F08003D3730122034B5A7370470B600040FC5F0040D081FF1F0B4A137803F0FD0378
:400D800013700A4B93F82230094B1B7E03F00303012B04D0064AD37E83F08003D3760122034B5A76704700BF0B600040FC5F0040D081FF1F08B5FFF7AFFC08BD70B4234B97
:400DC0001C78E4B201233CE014F0010F36D01A4619011F48084481784078014011F0010F17D003EB430080001A4D2844007910F0800F0ED0164D1E01A85D00F0FE00A8557C
:400E000003EB43008000134D28444579EDB21248855511F0020F0ED002EB420080000D4D2844007910F0800F05D102EB420080002844002545701201084881540133DBB273
:400E40006408002CC0D170BC704700BF9F60004070600040D081FF1FFE5F00407260004008B500F0FFFC08BD70B588B0054603AC174E0FCE0FC43368237035B322232B706B
:400E800003236B7001A800F01FFE002402231AE008AA224412F81C2C08A901EB121111F8141CE954581C00212954981C02F00F0208AE324412F8142C2A54DA1CA9540134B3
:400EC000E4B20433DBB2212BE2D908B070BD00BF141C000030B4012240E0114623481301C4180C25C5541F23637002EB42039B001F4803445B7913F0FF0F12D002EB420311
:400F00009B0003441B7913F0800F04D01001194B03449D700AE01001164B03440820987004E01001134B0344802098704B000B449B000F480344DC88E4B208010B49014488
:400F40008C71D888C0F30720C871D888C0B20871DB88C3F307234B710132D2B2082ABCD9FF22054B1A7030BC704700BF70600040D081FF1FFC5F00400A600040074B1B7833
:400F8000074A02EBC30253681A7C824203D903EBC003586970470020704700BFC081FF1F641C0000F8B5404B1B7813F0FF0F79D03D4B18780138C0B2FFF7E0FF047AC2683A
:400FC0003A4B1878C0B200236AE01178814264D13749095CC9B25578A9425ED1917801F07F01D67806F00306DFF8C8E04D000D44AD000EEB05074FF0000C87F803C092F888
:4010000002C087F804C092F803C00EF805C095883D8192F90250002D0DDA012E01D1072700E00D274D000D44AD00224E35446F7101266E700CE0012E01D1052700E0092742
:401040004D000D44AD001B4E35446F7100266E70DFF868E00F010EEB07060125B57001FA05F529448900134D29440D89C5F307250EF807500D89EDB27570CE88F6B20E4DDD
:401080003D44AE71CE88C6F30726EE71CE88F6B22E71C988C1F30721697108320133DBB2A34292D3F8BD00BFC581FF1FC181FF1FB081FF1FD081FF1F70600040FC5F00406B
:4010C000034B1A78034B03EBC2035868704700BFC081FF1F641C000008B5074B18780138C0B2FFF74BFF28B14268127900EBC203586908BD002008BDC581FF1FF8B5002214
:401100000EE0674E53009D18AD00741900217155A170E1702181A172617061710132D2B2082AEED940B90AE000225E49CA545E49CA540133DBB200E00023002BF4D05B4B91
:401140001B7813F0FF0F00F0A980584B18780138C0B2FFF713FF4368DB7913F0400F05D0534A137843F00103137004E0504A137803F0FE031370057A012461E0C168002313
:401180005AE08A7802F07F02944252D1264604EB44029200424F3A44128992B28F88BA4206D204EB44029200DFF8F4E0724417810A783C4FBA5CD2B24F78BA4239D191F8BE
:4011C00002C0374F72003244920007EB020E8EF804C091F803E007F802E0CA7802F0030291F90270002F11DA012A02D14FF0070C01E04FF00D0CDFF8A8E072009719BF007C
:40120000774487F805C001227A7012E0012A02D14FF0050C01E04FF0090C214F4FEA460E0EEB060292003A4482F805C016460022727008310133DBB2AB42A2D30134E4B259
:40124000082C9BD9C06800220CE0837803F07F0310F8084B03EB43039B0016490B449C700132D2B2AA42F0D3FFF736FF124B1860002301210EE00A4C4A00501880002044B7
:40128000C380028913449BB203F0010213449BB20131C9B20829EED9FFF71CFEF8BD00BFD081FF1FB081FF1F4082FF1FC581FF1FC381FF1FD881FF1FCC81FF1F08B5154B96
:4012C0001A7902F07F02531EDBB2072B20D8530013449B0010490B44997841F0010199700021D970597841F0020159701B7913F0800F05D01201094B13448D229A7004E0F8
:401300001201064B134489229A70FFF7B1FB08BD002008BD00600040D081FF1FFC5F0040264B1B7903F07F035A1ED2B2072A43D810B55A001A44920021490A44917801F0C4
:40134000FE0191700021D17019017F241D484454517801F0FD015170127912F0800F14D003EB4302920016490A445278D2B2012A05D11B0102461A440C23937019E01B010E
:40138000104A1A440D23937013E003EB430292000B490A445278D2B2012A05D11B01094A1A440823937004E01B01064A1A4409239370FFF75DFB10BD00207047006000402F
:4013C000D081FF1FFC5F004010B50E4B1C79E4B20D4B18780138C0B2FFF7D0FD43681B799C4201D9012C0AD8084A135DDBB208490B55044B9B78DBB21355012010BD0020D9
:4014000010BD00BF00600040C581FF1FB081FF1F4082FF1F10B5964B1B78DBB20021954A118013F0800F00F0B380914A5278D2B20A2A00F27981DFE812F06F007701770170
:401440007701770177010B00770198007701A000874BDB78DBB2012B09D1FFF731FE4268844B5A6012221A80FFF742FC10BD804BDB78DBB2022B13D17D4B9878FFF77EFDED
:40148000002800F0538142687A4B5A605A68D1785A68927842EA01221A80FFF729FC10BD734BDB78DBB2032B05D032E00A7811440133DBB201E000236F496D4A9278D2B223
:4014C0009A4203D90A7812F0FF0FEFD1684B9B78DBB2EE2B00D16949654B9B7813F0FF0F0BD0634B9B78DBB2654A127C934204D1644C2046FFF7B8FC21460B7813F0FF0F54
:4015000000F016810B785B4A13805160FFF7F0FB10BD00F011FB10BD13F0030317D0022B40F0088153490B80514B1B7903F07F0303EB43039B00544A13449A78D2B2534BA7
:401540001A7000225A704B60FFF7D2FB10BD494902230B804E4B1A78D2B24C4B1A7000225A704B60FFF7C4FB10BD424B01221A80484A5A60FFF7BCFB10BD3E4A0123138040
:401580003B4B1B7944490B445360FFF7B1FB10BD374A5278013A0A2A00F2CE80DFE812F04B00CC009700CC000B00CC00CC00CC001300CC0030002E4B9B78DBB2374A13703B
:4015C000FFF756FA10BD2A4B9B7803F0FF041BB1601EC0B2FFF7D2FC04B110B9002C40F0AD802C4B1B78DBB29C4206D0294B1C7001202B4B1870FFF781FDFFF739FA10BDFF
:40160000FFF7E2FE002800F09B80194A1379DBB21279D2B223490A70234AD25C1E49C95CD3B28B4204D001221D4B1A70FFF7BAFCFFF71EFA10BD03F00303012B36D04BB120
:40164000022B7FD10A4B9B7813F0FF0F7CD1FFF767FE10BD064B9B78DBB2012B76D10C4A137803F0FD031370FFF702FA10BD00BF00600040B481FF1FBC1C0000501C00008F
:401680003C1D00004482FF1FD081FF1F5081FF1FC381FF1FC581FF1FB081FF1FAC81FF1FC481FF1FC181FF1F4082FF1F2D4B1B7913F0FF0F4CD12B4B98781B79DBB22A4938
:4016C000CA5C22EA0002CA54FFF7D2F910BD03F00303012B17D04BB1022B3BD1214B9B7813F0FF0F38D1FFF7E9FD10BD1D4B9B78DBB2012B32D11D4A137843F002031370A3
:40170000FFF7B6F910BD174B1B7913F0FF0F27D1144B98781B79DBB21349CA5C22EA0002CA54FFF7A5F910BD002010BD002010BD002010BD002010BD002010BD002010BD0B
:40174000002010BD002010BD002010BD002010BD002010BD002010BD002010BD002010BD002010BD00600040C881FF1FC381FF1F08B50B4B1B7813F0800F0CD0084B5B7871
:40178000DBB2012B09D1074B074A5A6012781A80FFF7AEFA08BD002008BD002008BD00BF00600040B481FF1F281C0000F0B583B084468E4617461E460B4C02252570002385
:4017C0000093019328466146724600F0E5F820783946324600F0BAF82078294600F0A4F8207803B0F0BD00BF0C81FF1FF0B583B086460F4616461D460A4C01202070002320
:401800000093019371463A4600F0C6F8207831462A4600F09BF82078022100F085F8207803B0F0BD0D81FF1FF0B583B086460F4616461D460A4C0023237000930193184685
:4018400071463A4600F0A8F8207831462A4600F07DF82078022100F067F8207803B0F0BD0E81FF1F024B1878C0F38010704700BF8F450040000000000230800803D000BF18
:4018800001380046FCD17047EFF3108072B6704780F31088704700BF0B4A7F2313708021517007E0DA0002F1804202F5F042013BDBB21370002BF5D1DB0003F1804303F511
:4018C000F04300221A7070471081FF1F172815D831B103010A495A5C42F020025A5405E0030107495A5C02F0DF025A540001044A835C43F00103835400207047012070472B
:401900001070004017280BD80001064BC25C02F0FE02C254C25C02F0DF02C25400207047012070471070004017280BD80001064A835C03F0F10301F0070143EA4101815461
:4019400000207047012070471070004041F6FF73994201D14FF4005141F6FF739A4201D14FF40052172808D8C00000F1804000F5EC408180C280002070470120704700BFC0
:40198000172805D8034B03EB0010417200207047012070471070004017281BD810B4C00000F1804404F5EC44D201D2B201F07F01114321709DF804201201D2B203F00F0307
:4019C000134363709DF8083003F00F03A3700020E07001E0012070475DF8044B704700BF10B5FFF751FF0A4B5B78182B0BD9084A1478013B5370E30003F1804303F5F0439A
:401A00001B78137000E0FF24FFF742FF204610BD1081FF1F10F0800F0CD111F4704F0BD1C00000F1804000F5F04001808270C37000207047012070470120704710F0800F16
:401A400008D1C00000F1804000F5F0408180C280002070470120704701BE704708B5034B1B7A03FB00F0FFF707FF08BD1881FF1F70B504460E46074B1D681F2802D90020AD
:401A8000FFF7EAFF04F01F04103455F8240045F8246070BD08ED00E038B504460D46072902D90020FFF7D8FF1F2C02D90020FFF7D3FF04F01F0000F1604000F564406D017D
:401AC000EDB2057038BD00BF134B1B78DBB20360124A127843EA02230360114A127843EA024303600F4A127843EA026303600E4B1B78DBB243600D4A127843EA022343601E
:401B00000B4A127843EA024343600A4A127843EA02634360704700BF0301004904010049EC46004002010049010100490001004905010049060100490B4B1B7803F00303B9
:401B4000012B02D0022B03D00CE0074B1B7909E0054B1B7903F07F0303EB43039B00034A13449B780020704700600040D881FF1F0E4B70B51E460E4C0025E41AA410A542E5
:401B800004D056F8253098470135F8E700F0E0F8084B094C1E46E41AA4100025A54204D056F8253098470135F8E770BD5C1D00005C1D00005C1D0000641D000010B5431E7E
:401BC0000A44914204D011F8014B03F8014FF8E710BD03460244934202D003F8011BFAE77047000000000000405100403000C05100401000000001400010001401400008AF
:401C000000400140000A004C014000020050014020000000303132333435363738394142434445460000000028000000000104000100000000000000000143595553420082
:401C40000000303030303100000000000000000012034D0053004600540031003000300001000000010000006C1C0000010000003C1D0000000000000000000001000000AE
:401C8000841C0000010000001C1D000002000000A81C0000000000000000000000000000A41C000000000000000081024000000000000202400000000203000004030904A4
:401CC0002C0343007900700072006500730073002000530065006D00690063006F006E0064007500630074006F0072002C0352006F0061006400720075006E006E00650070
:401D00007200200043006F006E00740072006F006C006C0065007200000000000902200001010080FA09040000020000000007058102400000070502024000001201000203
:401D400000000008B40451800000010280010000F8B500BFF8BC08BC9E4670474D00000071010000F8B500BFF8BC08BC9E46704729000000881D00000881FF1F20000000FC
:401D8000400100000000000000000000FFFFFF007F8000000F0000000000E02EC05D00001800000000366E01000000000000000000000000000000000000000000000000EF
:401DC00000000000000000000000000000000000000000000000000000000000000000000000000000000000000000000000000000000000000000000000000000000000E3
:401E000000000000000000000000000000000000000000000000000000000000000000000000000000000000000000000000000000000000000000000000000000000000A2
:401E40000000000000000000000000000000000000000000000000000000000000000000000000000000000000000000000000000000000000000000000000000000000062
:401E80000000000000000000000000000000000000000000000000000000000000000000000000000000000000000000000000000000000000000000000000000000000022
:020000040003F7
:0200000480007A
:400000000145004006520040015A0040015B004003640040026500404E000140310101404F0201403F0301406F04014051050140680601404507014001090140611401407E
:4000400046150140441601404817014002190140021B01400A4001400B410140054201400743014002460140084701400F48014009490140044C0140034D01400A500140C3
:40008000025101407E02004001040480780179017C409F012784810F856F860F840F876F00C5023A03200513070C08A30A5C0B800F40107F151C1703180E1AF01D1F20FE29
:4000C000211A22012305249625052668271A2A012D0731803330354036FF370F3E40580459045C905F01820C84408502870489048A408B028C118D028E068F049502970414
:40010000980C9A139D10A011A20EA311A608A820AA03AB08AC40B030B101B240B308B40FB506B710B802BA20BB20BE04BF40D40FD804D904DB04DC91DD90DF010002038478
:4001400004900509080109100A400E04101011C81280131014401614174018021D011E241F0122802356242825502604274028112B802C802F083280330436043740382A12
:400180003B403D203F445C845E205F0280048240C0FAC24AC4FECAABCC5ACE7FD6F0013003040522060107050A010B3C0C060D1C11011302153016101708180419011B02A6
:4001C0001D2C1F1020062501260827022A022C013006320833033401353C361038023B083E11580459045C995F018484850186108B038D308E088F0890C09224930194B79E
:4002000095309640970498779B3C9D2C9E079F10A001A2F2A740A920AB04ACC1AD1CAE12B0F0B101B302B540B60FB73CBF01D280D804D904DB04DC99DD90DF0100840490C3
:4002400005080AAA0C180E041101134014401624174019021A821C081D401E201F022002214422222504271C28042B212F2030023280331436A0370939883B103C023D28B8
:400280003E404280430244044510700280088484914092049312949096409B409CC09D089E149F04A110A280A481A504A708C0E5C26FC4F9CA4ECCFFCEFE00160194022084
:4002C00003600530068007C90A700D9E0E080F601073130F1440157319FD1B02207521CF23302406264028102A20300731FF32F0340838023F014054410349FF4AFF4BFFD6
:400300004DA04F015018580459045A045C095D095F016040628064406540668068406A806C406D206E808008819E83608403853087C989948B608D7395CF97309C019DFDEC
:400340009F02A70FAC03AE0CB001B202B3FFB408B604B80ABB80BE11BF04C054C103C54CC620C73EC83BC9FFCAFFCBFFCDAFCE07CF01D018D40FD804D904DA04DB04DC89A8
:40038000DD99DF35E040E280E440E540E680E840EA80EC40ED20EE800002031504010620072009040A400F02112012801308160219081A501B231C511D021E0820802540FF
:4003C000271029022D08321536803708380639013B483C023D283E40404042104304450247044A024C804E024F04562A5D405E0A5F20660867047D027F02914092029302D1
:400400009494950196689740981099429A809B089C409D089E349F01A001A114A292A4C0A721AF08C03FC28CC48ECA41CC57CEFBD0C3D218D6F0D860DE90000102060C01F4
:400440000E0A0F031410170118011A022104261028022A0130083203330234043504361037013A083E403F104036410549FF4AFF4BFF4DA04F0150185401580459045A04E9
:400480005B045C995D195F016040628064406540668068406A806C406D206E808140830887808D668F10953B9801995D9B209C08A166A308A803AA0CAB78AC03B002B17845
:4004C000B208B307B401B5C0B604B822B908BE14C032C105C50EC6C4C723C83DC9FFCAFFCBFFCDAFCE07CF01D018D804D904DA04DC99DD09DF01E040E280E440E540E680CC
:40050000E840EA80EC40ED20EE8005410A090E24100A14041620180419081A411B101D011E061F042110220423402604270A280429022C842D012F043214360438023908EF
:400540003B403D8040044108450849844DC04E014F20500A510152605C805D115F088302852192029302948296289748981099429AA09C409E149F01A140A210A601A901EC
:40058000C090C263C463CA85CC46CE1BD046D238D6F0EE01EE0102030420059607680B010C100DC50E0C0F3A1220157F181C19FE1A021B011C091D0E1E101FF0200C21A33B
:4005C0002211235C241428102E20302033FF361F3E013F0440464105450B460E470C481549FF4AFF4BFF4EF04F44500C540F580459045A045B045C015D915F0166C06A40B6
:400600006B02870489018A028B028D049102920193019B049D019F02A104A501A702AB04AF08B002B308B401B504B703BB80BF10C004C640C9FFCA07CBFFCC40CD20CEF019
:40064000CF05D008D804D904DA04DC99DD01DF01E040E1A8E240E32000440380041008100A400B020E80106011601A801B801E801F202104241A2680270229022C402D80F5
:400680002F28329434103640370239203B483C503F084040468048244940508053085404551056145704580159105A8885808710904491609268934A940A950897209851DC
:4006C00099529A809E14A480A680A788A884C04DC21BC40FCAF1CCBECE7ED081D20CD60FE810EC1002010C08100118082102220427012A0330023201340435023608370118
:400700003E043F105280580459045B045C995D905F0184408505870A880389208A048C038D0A8E1C8F05924093309507982A990F9A149D039E289F0CA003A10CA234A303D1
:40074000A540A620AA15AC40AF40B00FB120B310B440B50FB638B740BA82BE10BF41D40FD804D904DB04DC91DD90DF050044011003080602074008100A400B020E881040FD
:40078000114012141520164018C019501C041D081E821F2022512314270529022A402B202F9030063294344035403B584540460259285A8261046220774078048201830497
:4007C0008401870491609248934A9482951896209810992E9AC09CC09E149F01A002A140A224A480A508C097C25BC45FCACBCC0FCE0ED60FD806DE02EA02EE02EA02EE02F9
:40080000E810EC103220330136403D04434079047A20CC70CE80D0100B200D085A805E0281089F41A660C230D480D680E08096809F41A661AF10EC40820196809F41A64156
:40084000AA20E680EE801A80C6080B400D0830204402AA40C20CCC08D004248827405F208240832096809F40AE40AF01C8A0D620E280E680EA40EE4001010F408501874076
:40088000B444C010C220E010E4409C02A420AD08AF40B422E808EC0800020101080209010A020B01100211011A021B01002B10A0B0000000004444004100000101000100D7
:4008C000C2000000043030000000000002000002020000000000000021000000000000000000000000000000000000000000000000000000000000000000000000000000AB
:4009000000000000000000000000000000000000000000000000000000000000000000000000000000000000000000000000000000000000000000000000000000000000B7
:400940000000000000000000000000000000000000000000000000000000000000000000000000000000000000000000000000000000000000000000000000000000000077
:400980000000000000000000000000000000000000000000000000000000000000000000000000000000000000000000000000000000000000000000000000000000000037
:4009C00000000000000000000000000000000000000000000000000000000000000000000000000000000000000000000000000000000000000000000000000000000000F7
:0200000490006A
:0400000000004005B7
:0200000490105A
:04000000BC90ACAF55
:0200000490303A
:020000003C3A88
:0200000490402A
:4000000000000000000000000000000000000000000000000000000000000000000000000000000000000000000000000000000000000000000000000000000000000000C0
:400040000000000000000000000000000000000000000000000000000000000000000000000000000000000000000000000000000000000000000000000000000000000080
:400080000000000000000000000000000000000000000000000000000000000000000000000000000000000000000000000000000000000000000000000000000000000040
:4000C0000000000000000000000000000000000000000000000000000000000000000000000000000000000000000000000000000000000000000000000000000000000000
:0200000490501A
:0C00000000012E16106900012E234CA3F5
:00000001FF