:400000000080002011000000650100006501000008B5044B1A6803F53F5302331A6000F0A3F800BFFA46004010B5054C237833B9044B13B10448AFF300800123237010BD10
:400040002881FF1F00000000C81E0000084B10B51BB108480849AFF300800848036803B910BD074B002BFBD0BDE81040184700BF00000000C81E00002C81FF1F0881FF1F35
:400080000000000038B5022001214FF4804241F6FF7301F0F3FC054601F00AFE0446022102460B4601F01EFE204645F6A0310B4A92B201F02BFE2846214601F0C9FD28460B
:4000C000012101F06BFD0020012100F033FB00F069FB0028FBD001F0B5FC38BD4481FF1F10B562B6FFF7CEFF022000F099FC002401F0B6FC83B23F2C00D90024174A1055F3
:40010000611C1B0A53540234E4B200F051FB28B100F048FB10B1022000F082FC022000F057FB0128E4D1022000F05CFB024602200B4900F01DFC022000F04AFB0128FAD055
:40014000022000F06DFC012000F042FB0128FAD10249224600F08EFBCAE700BF9881FF1F5881FF1FFEE700BF08B5104E104D16E029686B68AC68002204E051F8040B43F8D5
:40018000040B0432A242F8D1E868002203E0002143F8041B04328242F9D11035013E002EE6D101F057FEFFF79BFFFEE7010000005820000008B5134A134B1A60134A136852
:4001C00043F40073136000230AE0032B03D8104A52F8231000E00F490F4A42F8231001332F2BF2D90D4B1A780D4B1A700A4A0D4B1A6000F0F5F801F0B7FC00220A4B1A603A
:4002000008BD00BF0004FA050CED00E014ED00E000000000650100000080FF1FBC7600400481FF1F08ED00E00081FF1FFEE700BFF0B40022174611E050F82760F3B226F0AE
:40024000FF0608E001EB420511F812406D78A5550132013BDBB2002BF4D10137212FEBD9F0BC704708B50A46002101F024FE08BD38B53122294B1A801823294A137055218E
:40028000023211800232137040F23D1102321180023213700622234B1A705222A3F580731A70214B1B78DBB2204A137040F635721F4B1A8042F25122023B1A8000241925E3
:4002C0000CE01C4B1B7803F0010343EA440404F003044FF4F07001F037FC013D0DB1032CEFD115B90320FFF7A1FF134B4FF480721A8007221A70022210490A700820023146
:4003000008700021197005331970083B1A700C4A137843F00703137038BD00BF8040004082400040004300400F010049A1460040224200402542004004400040064000405E
:40034000A2430040F8B51C4B1B78DBB21B4E3478E4B21B4F3D78EDB203F00701194A11701B090132137044F00303337045F003033B708A22144B1A70602203F2F4731A7042
:40038000012203F27F131A702023104A13700921703211708021203211700332137004220B4B1A700A2001F0C1FC3D7034704422084B1A70F8BD00BFCF010049F8460040F3
:4003C000F94600406E5800400D510040905A00405B5B00407658004008B501F061FD08BD38B572B63A4A137843F00403137000240CE0384963001A1952000A4423445B0071
:40040000C8589188FFF72EFF0134E4B2062CF0D94FF090403049FFF70BFF30480421FFF721FF2F480421FFF71DFF2E480421FFF719FF2D480421FFF715FF2C4A137843F030
:40044000020313701032137843F002031370284C237843F040032370A2F58632513A137843F010031370234823490822FFF7B4FF224823490822FFF7AFFF224822490A22D7
:40048000FFF7AAFF214822490A22FFF7A5FF214821490822FFF7A0FF8422204B1A70442203F58C531A701E4A137843F0080313701C4D61232B70FFF7DBFE81232B70FFF7CF
:4004C00041FF194821460E22FFF786FF38BD00BFE8460040CC1E0000880000480076004008760040107600401876004003500140A04300400251004088080048C2510040F0
:4005000090080048F05100409808004820510040A408004832510040B0080048DB0201402243004000480040B0430040F8B501F013FB0546404A137843F001031370103284
:40054000137843F00103137001273C4B1F700226943B1E7002F5E2521B32137803F07F031370002001F0E2FB354C237803F0F9032370344A137803F0DF03137023783B4372
:400580002370384601F0D2FB282001F0CFFB2E4B1A7802F07F021A701A7802F0BF021A70237833432370304601F0C0FB237843F0040323700023254A13700132137004E0B5
:4005C000FF21234AD15401339BB2082BF8D9284601F0C6FA1720072101F0C6FB17201D4901F0AEFB1820072101F0BEFB18201A4901F0A6FB0120072101F0B6FB01201749BA
:4006000001F09EFB0220072101F0AEFB0220144901F096FB1620002101F0A6FB1620114901F08EFB0C20072101F09EFB0C200E4901F086FBF8BD00BFA54300409D600040AC
:400640009443004012600040F851004084600040E481FF1FE10E0000410D00006D0E0000A50E0000E90E00008D0F000008B5234B18700023224A1370224A1370224A1370E0
:40068000224A1370224A1370224A1370224A1370224B4FF400021A604FF080721A6002221A6004221A6003201D4A10704FF480021A6020221B4B1A7011B1012906D00BE041
:4006C000194A137803F0FE0313700AE0164A137843F00103137004E0134A137843F0010313700322114B1A708022203B1A70012001F02AFA04220E4B1A7008BD0482FF1F46
:400700000A82FF1F0882FF1F0982FF1F0582FF1FF081FF1F0782FF1F8082FF1F00E100E09E6000409C60004009600040286000401260004038B505460C46064B1B7823B91B
:40074000FFF7F4FE0122034B1A7028462146FFF78DFF38BD4C81FF1F00230A4A13700A4A13700A4A13700A4A13700A4A13700A4A13700A4A13700322094B1A708022203B5B
:400780001A7070470A82FF1F0882FF1F0982FF1F0582FF1FF081FF1F0782FF1F8082FF1F28600040014B1878704700BF0982FF1F064B1B7813F0FF0F05D0044B1878C0B224
:4007C00000221A7070470020704700BF0882FF1F00EB40008000024B18444078704700BF1482FF1F431EDBB2072B0BD8064B00011A18185C00F00F00537843EA00200238D6
:4008000080B2704700207047FC5F004010B5044600EB40008000144B1844037913F0800F03D00A0C4FF4804302E00B0C4FF48042012C02D0022C07D00CE00020014601F0A5
:400840005BF90A4B185505E00020014601F036F9064B1855631EDBB2072B03D801F028FA034B185510BD00BF1482FF1FD881FF1FE481FF1F2DE9F0410446431EDBB2072B64
:4008800068D80E46154600EB40039B00324A1344DB889BB2C3F500739D4207D900EB40039B001344DD88C5F50075ADB204EB44039B00294A1344DB7843EA1523274922011A
:4008C00088188B54EBB24370254B1B5DFF2B03D120463146FFF79AFF04EB44039B001E4A134400225A705EB355B31E4F385D01F071F9DFF86C8018F804002946FE2211234B
:4009000001F0F0F922010832174D2A4492B218F80400B1B201F0FAF9385D18F8041001F097F9385D012101F039F924012B5D43F002032B552B5D03F0FD032B55BDE8F08185
:4009400004EB44039B00044A13445A79D2B22401064B1A55BDE8F0811482FF1FFC5F0040E481FF1FD881FF1F70600040FE5F00402DE9F843002944D0044615460F46002809
:4009800041D0082841D8FFF72DFFA84203D22046FFF728FF05461F4B1B5DFF2B03D120463946FFF733FFDFF8748018F8040001F011F9DFF8609019F804002946FE221223C7
:4009C00001F090F921010831134E314489B219F80400BAB201F09AF918F8040019F8041001F036F918F80400012101F0D7F82401335D43F002033355335D03F0FD0333553D
:400A000004E0002502E0002500E000252846BDE8F88300BFE481FF1F70600040D881FF1F431EDBB2072B0BD8430003449B00054A134400225A705A79D2B20001024B1A547D
:400A4000704700BF1482FF1FFE5F00401C4B19781C4A13880B449BB2138000230EE01A4A51680978C9B21948C1545168013151600133DBB21188013989B21180124A1288F5
:400A800092B20AB1072BEAD90D4A1278D2B2082A00D05BB10E490A7882F080020A700F210C4A117002210C4A117004E0022209490A7009490A70094A1370014A137070478C
:400AC0008082FF1F8682FF1FF881FF1F006000400682FF1FF181FF1F0A82FF1F8182FF1F0222074B1A708022064B1A700F22064B1A700023054A1370054A13700120704750
:400B00000A82FF1F0682FF1FF181FF1F8082FF1F8182FF1F08B5FFF799FF08BD10B4184B197801F00F010239C9B2164A13880B449BB21380002010E0134B5C68134A125CEE
:400B4000D2B222705A6801325A600130C0B20139C9B21A88013A92B21A800B4B1B889BB20BB10029E8D10A4B19700A4A137883F0800313700B22084B1A705DF8044B70471E
:400B8000296000408682FF1FF881FF1F006000408182FF1F0682FF1FF181FF1F0623064A1370064A13708022054B1A700022054B1A700120704700BF0A82FF1FF181FF1FA0
:400BC0000682FF1F8182FF1F064B9B6843B1054B9A6810709A6804490988518000229A60704700BFF881FF1F8682FF1F08B5134B1A78D2B21A701B78DBB213F0800F02D0D5
:400C00000F4A137008BD0220FFF7DEFF0D4B1B7803F06003202B05D0402B06D043B900F08FFC06E001F0FAF803E000F037FE00E0002010B90322024B1A7008BD28600040E2
:400C4000F181FF1F0060004008B5084B1978084A13880B449BB213800022064B1A700120FFF7B2FF0322044B1A7008BD8082FF1F8682FF1F0A82FF1FF181FF1F08B50B4B6C
:400C80001B78DBB2042B06D0062B07D0022B0BD1FFF7DAFF08BDFFF741FF08BD0320FFF793FF0322024B1A7008BD00BF0A82FF1FF181FF1F08B50022044B1A700120FFF73B
:400CC00083FF0322024B1A7008BD00BF0A82FF1FF181FF1F08B50B4B1B7813F0FF0F07D0084A137843F0800307490B70002313700022064B1A700120FFF766FF0322044B39
:400D00001A7008BDF081FF1F086000400A82FF1FF181FF1F08B5094B1B78DBB2042B06D0062B07D0022B07D1FFF7F4FE08BDFFF7C1FF08BDFFF7CEFF08BD00BF0A82FF1F97
:400D400008B5284B1B78DBB213F0100F48D013F0800F0CD003F00F03012B16D1FFF746FF214B1B7813F0800F11D1012312E013F0400F03D0FFF7CEFF01230BE013F0200F76
:400D800007D0FFF77BFF012304E0002302E0002300E0002323B3134B1B7813F0800F1FD1124B1B78124A12781343124A13701278D2B29A4214D10C4B1B78DBB2094A127842
:400DC00012F0800F07D1084B1B78DBB2054A1370137803F00F03044A1278D2B29342EAD108BD00BF28600040F181FF1F0682FF1F8182FF1F296000400022064B1A80064BFF
:400E00009B682BB1044A916800230B7092685380704700BF8682FF1FF881FF1F08B50F4B1B889BB213B9FFF75BFE15E002220C4B1A7000220B4B1A70FFF7DEFF0A4AD1795F
:400E4000937943EA0123054A128892B29A4201D9024A1380FFF7FAFD012008BDF881FF1F0A82FF1F0682FF1F006000400A4A137803F0FE031370094B9B7C094B1B7B03F05B
:400E80000303012B04D0064AD37B83F08003D3730122034B5A7370470B600040FC5F00401482FF1F0B4A137803F0FD0313700A4B93F82230094B1B7E03F00303012B04D0F5
:400EC000064AD37E83F08003D3760122034B5A76704700BF0B600040FC5F00401482FF1F08B5FFF739FC08BD70B4234B1C78E4B201233CE014F0010F36D01A4619011F48BD
:400F0000084481784078014011F0010F17D003EB430080001A4D2844007910F0800F0ED0164D1E01A85D00F0FE00A85503EB43008000134D28444579EDB21248855511F090
:400F4000020F0ED002EB420080000D4D2844007910F0800F05D102EB420080002844002545701201084881540133DBB26408002CC0D170BC704700BF9F6000407060004027
:400F80001482FF1FFE5F00407260004008B500F0D1FD08BD70B588B0054603AC174E0FCE0FC43368237035B322232B7003236B7001A800F0F1FE002402231AE008AA224448
:400FC00012F81C2C08A901EB121111F8141CE954581C00212954981C02F00F0208AE324412F8142C2A54DA1CA9540134E4B20433DBB2212BE2D908B070BD00BFF81E000069
:4010000030B4012240E0114623481301C4180C25C5541F23637002EB42039B001F4803445B7913F0FF0F12D002EB42039B0003441B7913F0800F04D01001194B03449D705F
:401040000AE01001164B03440820987004E01001134B0344802098704B000B449B000F480344DC88E4B208010B4901448C71D888C0F30720C871D888C0B20871DB88C3F318
:4010800007234B710132D2B2082ABCD9FF22054B1A7030BC704700BF706000401482FF1FFC5F00400A600040074B1B78074A02EBC30253681A7C824203D903EBC00358691B
:4010C00070470020704700BF0482FF1F481F0000F8B5404B1B7813F0FF0F79D03D4B18780138C0B2FFF7E0FF047AC2683A4B1878C0B200236AE01178814264D13749095CD9
:40110000C9B25578A9425ED1917801F07F01D67806F00306DFF8C8E04D000D44AD000EEB05074FF0000C87F803C092F802C087F804C092F803C00EF805C095883D8192F91D
:401140000250002D0DDA012E01D1072700E00D274D000D44AD00224E35446F7101266E700CE0012E01D1052700E009274D000D44AD001B4E35446F7100266E70DFF868E054
:401180000F010EEB07060125B57001FA05F529448900134D29440D89C5F307250EF807500D89EDB27570CE88F6B20E4D3D44AE71CE88C6F30726EE71CE88F6B22E71C988A3
:4011C000C1F30721697108320133DBB2A34292D3F8BD00BF0982FF1F0582FF1FF481FF1F1482FF1F70600040FC5F0040034B1A78034B03EBC2035868704700BF0482FF1F85
:40120000481F000008B5074B18780138C0B2FFF74BFF28B14268127900EBC203586908BD002008BD0982FF1FF8B500220EE0674E53009D18AD00741900217155A170E170EE
:401240002181A172617061710132D2B2082AEED940B90AE000225E49CA545E49CA540133DBB200E00023002BF4D05B4B1B7813F0FF0F00F0A980584B18780138C0B2FFF7ED
:4012800013FF4368DB7913F0400F05D0534A137843F00103137004E0504A137803F0FE031370057A012461E0C16800235AE08A7802F07F02944252D1264604EB4402920088
:4012C000424F3A44128992B28F88BA4206D204EB44029200DFF8F4E0724417810A783C4FBA5CD2B24F78BA4239D191F802C0374F72003244920007EB020E8EF804C091F8C1
:4013000003E007F802E0CA7802F0030291F90270002F11DA012A02D14FF0070C01E04FF00D0CDFF8A8E072009719BF00774487F805C001227A7012E0012A02D14FF0050C85
:4013400001E04FF0090C214F4FEA460E0EEB060292003A4482F805C016460022727008310133DBB2AB42A2D30134E4B2082C9BD9C06800220CE0837803F07F0310F8084BBB
:4013800003EB43039B0016490B449C700132D2B2AA42F0D3FFF736FF124B1860002301210EE00A4C4A00501880002044C380028913449BB203F0010213449BB20131C9B266
:4013C0000829EED9FFF71CFEF8BD00BF1482FF1FF481FF1F8482FF1F0982FF1F0782FF1F1C82FF1F1082FF1F08B5154B1A7902F07F02531EDBB2072B20D8530013449B00BA
:4014000010490B44997841F0010199700021D970597841F0020159701B7913F0800F05D01201094B13448D229A7004E01201064B134489229A70FFF7B1FB08BD002008BD6D
:40144000006000401482FF1FFC5F0040264B1B7903F07F035A1ED2B2072A43D810B55A001A44920021490A44917801F0FE0191700021D17019017F241D484454517801F024
:40148000FD015170127912F0800F14D003EB4302920016490A445278D2B2012A05D11B0102461A440C23937019E01B01104A1A440D23937013E003EB430292000B490A445E
:4014C0005278D2B2012A05D11B01094A1A440823937004E01B01064A1A4409239370FFF75DFB10BD00207047006000401482FF1FFC5F004010B50E4B1C79E4B20D4B1878B3
:401500000138C0B2FFF7D0FD43681B799C4201D9012C0AD8084A135DDBB208490B55044B9B78DBB21355012010BD002010BD00BF006000400982FF1FF481FF1F8482FF1F46
:4015400010B5964B1B78DBB20021954A118013F0800F00F0B380914A5278D2B20A2A00F27981DFE812F06F00770177017701770177010B00770198007701A000874BDB782E
:40158000DBB2012B09D1FFF731FE4268844B5A6012221A80FFF742FC10BD804BDB78DBB2022B13D17D4B9878FFF77EFD002800F0538142687A4B5A605A68D1785A68927880
:4015C00042EA01221A80FFF729FC10BD734BDB78DBB2032B05D032E00A7811440133DBB201E000236F496D4A9278D2B29A4203D90A7812F0FF0FEFD1684B9B78DBB2EE2B58
:4016000000D16949654B9B7813F0FF0F0BD0634B9B78DBB2654A127C934204D1644C2046FFF7B8FC21460B7813F0FF0F00F016810B785B4A13805160FFF7F0FB10BD00F0F7
:40164000EDFB10BD13F0030317D0022B40F0088153490B80514B1B7903F07F0303EB43039B00544A13449A78D2B2534B1A7000225A704B60FFF7D2FB10BD494902230B8028
:401680004E4B1A78D2B24C4B1A7000225A704B60FFF7C4FB10BD424B01221A80484A5A60FFF7BCFB10BD3E4A012313803B4B1B7944490B445360FFF7B1FB10BD374A52788F
:4016C000013A0A2A00F2CE80DFE812F04B00CC009700CC000B00CC00CC00CC001300CC0030002E4B9B78DBB2374A1370FFF756FA10BD2A4B9B7803F0FF041BB1601EC0B210
:40170000FFF7D2FC04B110B9002C40F0AD802C4B1B78DBB29C4206D0294B1C7001202B4B1870FFF781FDFFF739FA10BDFFF7E2FE002800F09B80194A1379DBB21279D2B276
:4017400023490A70234AD25C1E49C95CD3B28B4204D001221D4B1A70FFF7BAFCFFF71EFA10BD03F00303012B36D04BB1022B7FD10A4B9B7813F0FF0F7CD1FFF767FE10BD08
:40178000064B9B78DBB2012B76D10C4A137803F0FD031370FFF702FA10BD00BF00600040F881FF1FA01F0000341F0000202000009482FF1F1482FF1F5081FF1F0782FF1FE9
:4017C0000982FF1FF481FF1FF081FF1F0882FF1F0582FF1F8482FF1F2D4B1B7913F0FF0F4CD12B4B98781B79DBB22A49CA5C22EA0002CA54FFF7D2F910BD03F00303012B54
:4018000017D04BB1022B3BD1214B9B7813F0FF0F38D1FFF7E9FD10BD1D4B9B78DBB2012B32D11D4A137843F002031370FFF7B6F910BD174B1B7913F0FF0F27D1144B987886
:401840001B79DBB21349CA5C22EA0002CA54FFF7A5F910BD002010BD002010BD002010BD002010BD002010BD002010BD002010BD002010BD002010BD002010BD002010BD09
:40188000002010BD002010BD002010BD002010BD006000400C82FF1F0782FF1F08B50B4B1B7813F0800F0CD0084B5B78DBB2012B09D1074B074A5A6012781A80FFF7AEFA95
:4018C00008BD002008BD002008BD00BF00600040F881FF1F0C1F000008B50A280FD00C2802D0082806D102E04FF4805209E04FF4807206E0002000F017FA002201E04FF4FB
:4019000080620021094B198042F2107303FB02F303F6C413064A82FB0302DB17C3EBE223044A1360044B198008BD00BF8A82FF1FAD8BDB689082FF1F8C82FF1F10B500F0E3
:401940000BF904461E4A137843F0010313701032137843F001031370193A137843F0010313701032137843F00103137002F5AA521132137843F0030313701822114B1A7029
:40198000013B1A7842F040021A701A7802F0FC021A70C822053B1A700222A3F597530C3B1A70094A137843F0080313700A2000F0BDF90122054B1A60204600F0D1F810BDDC
:4019C000AB43004006590040275B004080E200E010B504460A280DD00C2802D0082804D101E0C22207E0422205E0002000F09CF9C22200E08222034B1A702046FFF76CFF4C
:401A000010BD00BF0259004008B5102000F0FCF90020072100F0A8F90020074900F090F9064A137843F0060313700C20FFF7D0FF0022034B1A8008BD791A00000159004064
:401A40008882FF1F08B5054B1B7823B9FFF7DCFF0122024B1A70FFF771FF08BD5481FF1F034B1B88034A1088181A00B2704700BFA05B00408C82FF1F704700BFF0B583B0F4
:401A800084468E4617461E460B4C0225257000230093019328466146724600F0E5F820783946324600F0BAF82078294600F0A4F8207803B0F0BD00BF0C81FF1FF0B583B0D2
:401AC00086460F4616461D460A4C0120207000230093019371463A4600F0C6F8207831462A4600F09BF82078022100F085F8207803B0F0BD0D81FF1FF0B583B086460F4609
:401B000016461D460A4C0023237000930193184671463A4600F0A8F8207831462A4600F07DF82078022100F067F8207803B0F0BD0E81FF1F024B1878C0F38010704700BF65
:401B40008F450040000000000230800803D000BF01380046FCD17047EFF3108072B6704780F31088704700BF0B4A7F2313708021517007E0DA0002F1804202F5F042013B79
:401B8000DBB21370002BF5D1DB0003F1804303F5F04300221A7070471081FF1F172815D831B103010A495A5C42F020025A5405E0030107495A5C02F0DF025A540001044A79
:401BC000835C43F00103835400207047012070471070004017280BD80001064BC25C02F0FE02C254C25C02F0DF02C25400207047012070471070004017280BD80001064A06
:401C0000835C03F0F10301F0070143EA4101815400207047012070471070004041F6FF73994201D14FF4005141F6FF739A4201D14FF40052172808D8C00000F1804000F5D7
:401C4000EC408180C280002070470120704700BF172805D8034B03EB0010417200207047012070471070004017281BD810B4C00000F1804404F5EC44D201D2B201F07F01A1
:401C8000114321709DF804201201D2B203F00F03134363709DF8083003F00F03A3700020E07001E0012070475DF8044B704700BF10B5FFF751FF0A4B5B78182B0BD9084AED
:401CC0001478013B5370E30003F1804303F5F0431B78137000E0FF24FFF742FF204610BD1081FF1F10F0800F0CD111F4704F0BD1C00000F1804000F5F04001808270C3701A
:401D000000207047012070470120704710F0800F08D1C00000F1804000F5F0408180C280002070470120704701BE704708B5034B1B7A03FB00F0FFF707FF08BD1881FF1FB0
:401D400070B504460E46074B1D681F2802D90020FFF7EAFF04F01F04103455F8240045F8246070BD08ED00E038B504460D46072902D90020FFF7D8FF1F2C02D90020FFF75B
:401D8000D3FF04F01F0000F1604000F564406D01EDB2057038BD00BF134B1B78DBB20360124A127843EA02230360114A127843EA024303600F4A127843EA026303600E4B77
:401DC0001B78DBB243600D4A127843EA022343600B4A127843EA024343600A4A127843EA02634360704700BF0301004904010049EC460040020100490101004900010049DF
:401E00000501004906010049034B1A7800F0F80010431870704700BF824000400B4B1B7803F00303012B02D0022B03D00CE0074B1B7909E0054B1B7903F07F0303EB4303C0
:401E40009B00034A13449B7800207047006000401C82FF1F0E4B70B51E460E4C0025E41AA410A54204D056F8253098470135F8E700F0E0F8084B094C1E46E41AA4100025CD
:401E8000A54204D056F8253098470135F8E770BD4020000040200000402000004820000010B5431E0A44914204D011F8014B03F8014FF8E710BD03460244934202D003F883
:401EC000011BFAE7704700000000000010510040100040510040300000000140001000140140000800400140000A004C014000020050014020000000303132333435363767
:401F00003839414243444546000000002800000000010400010000000000000000014359555342000000303030303100000000000000000012034D00530046005400310075
:401F4000300030000100000001000000501F00000100000020200000000000000000000001000000681F00000100000000200000020000008C1F00000000000000000000F9
:401F800000000000881F0000000000000000810240000000000002024000000002030000040309042C0343007900700072006500730073002000530065006D006900630031
:401FC0006F006E0064007500630074006F0072002C0352006F0061006400720075006E006E0065007200200043006F006E00740072006F006C006C006500720000000000E0
:402000000902200001010080FA09040000020000000007058102400000070502024000001201000200000008B40451800000010280010000F8B500BFF8BC08BC9E46704722
:402040004D000000B5010000F8B500BFF8BC08BC9E46704729000000682000000881FF1F200000009001000000000000FFFFFF007F8000000F0000000000C23384670000EA
:402080001B000000A05B9401000000000000000000000000000000000000000000000000000000000000000000000000000000000000000000000000000000000000000075
:4020C00000000000000000000000000000000000000000000000000000000000000000000000000000000000000000000000000000000000000000000000000000000000E0
:40210000000000000000000000000000000000000000000000000000000000000000000000000000000000000000000000000000000000000000000000000000000000009F
:40214000000000000000000000000000000000000000000000000000000000000000000000000000000000000000000000000000000000000000000000000000000000005F
:40218000000000000000000000000000000000000000000000000000000000000000000000000000000000000000000000000000000000000000000000000000000000001F
:020000040003F7
:0200000480007A
:400000000145004004520040015A0040015B004003640040026500404A0001402A01014062020140430301405A0401404A0501405D06014042070140010D014046140140B5
:400040004A150140661601404817014002190140021B01400B4001400D41014006420140034301400145014005460140064701400D4801400A490140044C0140034D0140B1
:4000800008500140025101407E020180640478087C4097012784800F836F850F846F860F01030578060809020A010B010D280F501202130315381A041B041D501F28216060
:4000C000231825042D182F60300431043202337834083502360137013F51540F580459045B045C995D905F01811486088720880A89098A148BD08C2093039413950C960C3E
:4001000097719A15A040A413A5DCA604A722A803A910AA14ABACAD10AF40B010B20FB440B5E0B620B71FBA08BB20BE51D804D904DC11DF01021003080420062807020A48A6
:400140000E100F0815011604170819881A481E981F442104225123102620270A29022B112C022E1830203346370A395A3D223E203F085AA15B048B40C0E6C26AC470CA7BB1
:40018000CCCFCEEFD60FE68001400308095D0B200F781380153B1C011D661E021F10216623082C012E023178320133C03507360239204025410649FF4AFF4BFF4DA04F01F7
:4001C0005018580459045A045C995D095F016040628064406540668068406A806C406D206E80810484018F0C970398089901A003A20CA403AF01B002B108B208B301B404A9
:40020000B502B601B704B882BE44BF44C035C106C532C6C4C70EC81FC9FFCAFFCBFFCDAFCE07CF01D018D280D40FD804D904DA04DB04DC99DD99DF05E040E280E440E540B4
:40024000E680E840EA80EC40ED20EE8000040A040E0110B01580180219441A041B021C201F4021052250232024042618275C2A802D0232183749388039023D403F124104AF
:40028000472048A049604C014D3050405128581059045A82612872807A1083808740924A93189420955399889D029E149F44A264A422A511A71FAD04AE01C004C282C48C8B
:4002C000CA88CCD6CEB9D022D23CD60FD806DE02E60404010573060209FD0B020C040DCF0E080F3010011130120213C91404160818011A021C021D9E1E011F6020082204AB
:4003000026102B0F2C042D942E282F60300C3220341035FF36033A823BC03F10580459045C895F31810E83F0847389FE8B018C9E8D968E608F689494957F966098FD9A0263
:400340009B019CCF9DC59E309F3AA1A3A35CA60FA830AAC9B6FFB7FFBE40BF40C026C101C5E0C7BCC832C9FFCAFFCBFFCEF0CF44D00CD401D804D904DA04DB04DD11DF01D7
:40038000E6C0EA40EB020188048007200A6A0E161020124215281A221B5B1D40200A2140270129202A402B012C042D022F443040320133403480375838043B903D403F92D2
:4003C000440445804D014E08550156045C205D015E88642066047A087B8481808220900492489318942095C1960199889B5C9D229E049F01A020A264A380A402A511A71DEE
:40040000AE10B010C0A5C2EFC46DCA8CCC79CEBED030D220D6F0DE01EE80047F052007430B0C0CC50E3A140E158C16F0171318FE19D11A011B0E1CA31E5C2601289629D15A
:400440002A682B062F0830FF330F353037C039A03B083E013F404001474049FF4A074BFF4C404D204EF04F055008580459045A045C105D015F01604061A86240632082209C
:40048000830485078608880789248B108C018D018E028F029110920493209407970799079A109C049D109F20A001A110A202A320A607A740A901AB02AC10AF08B140B21045
:4004C000B30FB40FB530B620BB20BE04D804D904DC99DF01000A0306048407200A020B940C140E160F0110401210134014081520170819241A011C80211422162420255001
:400500002604282429422C022F043010320433813624388439203B013D203F0845404F085402652066109202931894A095289615978098C099409B049D209F20A005A2202E
:40054000A343A402A510A603A704C0AFC2EFC46DCA3FCC6FCE6FD010E60400010202040105010602081A0A610C010E020F04110112041428165018781B081F02206022181D
:400580002404283829042C502E28310432033301347835023604370839083A083E403F01540F580459045B045C995D905F0581308308852C87108803913093049603991C03
:4005C0009A049F02A520A704A801AA02AB3CAF01B002B13CB201B404B501B702BE05D804D904DC99DF0100890308052009120A240B200E080F1011021222132015101A16E5
:400600001B081C081D101E60200121102240239025012621270129202F1A311232403450360237203A403B083D023E0459045A025B90621878108440851088408E048F123A
:40064000911092209308965499249A509B209F01A102A20AA302A510A611A910AB01AE20AF40C04FC26EC44FCA74CCBDCECAD60FD806DE04E0C0E810EC10016602020310B6
:400680000430055D06080720081C093B0F801020116612041308142C1610177818021E3C20302204260329402B08317832023307340135C0363C39083E044031410649FFC6
:4006C0004AFF4BFF4DA04F0150185280540F580459045A045B045C995D995F016040628064406540668068406A806C406D206E80810282048502870189028E029201B002EA
:40070000B101B404B601B702B980BF40C031C106C503C6C4C72EC83DC9FFCAFFCBFFCDAFCE07CF01D018D804D904DA04DC99DD09DF01E040E280E440E540E680E840EA80AA
:40074000EC40ED20EE8002400301062007440A800E080F921480170819221A801B801D081E081F402180234024902501260227282E103408360138123B043C903D023E0431
:400780004188458848084B0C4C084D104E0450015102525853025C045E605F0177409004922893109480961497C4988899049B049D029F29A040A341A601A780B020C079B9
:4007C000C2F8C430CA20CCC0CEF7D05AD224D6F0E880EA02EE02EA02EE02E810EC103280330136403C014340600162808A40CC70CE80D0100A0451206310828087109A401E
:400800009F41A6C0C240D420D840E210E6209A409F41A640AE04B120E8409A409F41A64082101A2030209620C608CC080B400D084402A420C20CD0042488274056409A407E
:400840009C409F40AE40AF01B040C8A0D440EA40EE4005400A20144089408E109C40B444C080C210C4209C02A420AD08AF40B422E808EC0800020101080209010A020B0177
:4008800011011B01002B10A04000000000888A0016606000000000004800000808000800C000000002000002020000000000000018000000000000000000000000000000C9
:4008C00000000000000000000000000000000000000000000000000000000000000000000000000000000000000000000000000000000000000000000000000000000000F8
:4009000000000000000000000000000000000000000000000000000000000000000000000000000000000000000000000000000000000000000000000000000000000000B7
:400940000000000000000000000000000000000000000000000000000000000000000000000000000000000000000000000000000000000000000000000000000000000077
:400980000000000000000000000000000000000000000000000000000000000000000000000000000000000000000000000000000000000000000000000000000000000037
:0200000490006A
:0400000000004005B7
:0200000490105A
:04000000BC90ACAF55
:0200000490303A
:02000000245F7B
:0200000490402A
:4000000000000000000000000000000000000000000000000000000000000000000000000000000000000000000000000000000000000000000000000000000000000000C0
:400040000000000000000000000000000000000000000000000000000000000000000000000000000000000000000000000000000000000000000000000000000000000080
:400080000000000000000000000000000000000000000000000000000000000000000000000000000000000000000000000000000000000000000000000000000000000040
:4000C0000000000000000000000000000000000000000000000000000000000000000000000000000000000000000000000000000000000000000000000000000000000000
:0200000490501A
:0C00000000012E16106900012E2434C8E7
:00000001FF